:020000040000FA
:0400000007EF00F016
:1000080003821AED00F043EF00F00F0EC16E000EF0
:10001800946E000E826E000E956E000E836E000EBA
:10002800936E000E816E010E926E1200060080A87B
:1000380020EF00F022EF00F029EF00F0014A022A39
:10004800EC0ED76E780ED66EF2940392110009EC7E
:1000580000F039EC00F0EC0ED76E780ED66E01C0C9
:1000680083FF33EF00F007EF00F0F29ED588D586C6
:10007800D59CD58EF294F28AF28CF28E1200026A26
:0C008800016A0390039200012BEF00F0CE
:020000040020DA
:08000000FFFFFFFFFFFFFFFF00
:020000040030CA
:0E00000000051F1FFF8385FF0FC00FE00F409C
:00000001FF
