:020000040000FA
:04000000ABEF3EF034
:107D5600146A136A126A116A0001D6EF3EF0CD82E8
:107D6600CD9ECF0ECD16CD809E909D801200F29EA8
:107D7600D588D58AD586D58CD58EF294F28AF28CA2
:107D8600F28E12000F0EC16E000E956E000E836EFF
:107D9600000E936E000E816E000E966E000E846EBF
:107DA600928894801200C5EC3EF0BAEC3EF0B2EC3C
:107DB6003EF01BEC3FF007C00DF008C00EF00DC002
:107DC60083FFF0EC3EF009C00FF00AC010F00FC0C0
:107DD60081FFDCEF3EF000EF00F0CE50D65C0B6E7C
:107DE600CF50D7580C6E0BC001F00CC002F0000E3D
:107DF600046E0A0E036E9EEC3FF001C011F002C045
:107E060012F00CBE10EF3FF00C5009E11F0E0B5C98
:107E1600D8A010EF3FF012EF3FF015EF3FF084804F
:107E260016EF3FF0849011C009F012C00AF012005C
:107E3600CE50D65C096ECF50D7580A6E09C001F0F5
:107E46000AC002F0000E046E0A0E036E46EC3FF006
:107E560001C013F002C014F00ABE3BEF3FF00A5017
:107E660009E11F0E095CD8A03BEF3FF03DEF3FF064
:107E760040EF3FF0848041EF3FF0849013C007F05D
:107E860014C008F01200000E066E02BE4FEF3FF05F
:107E96004DEF3FF055EF3FF0016C021ED8B0022ABD
:107EA600010E066E04BE5CEF3FF05AEF3FF060EF46
:107EB6003FF0036C041ED8B0042A03500410D8B453
:107EC60067EF3FF069EF3FF08DEF3FF0010E056E73
:107ED60071EF3FF0D89003360436052A04AE76EFEC
:107EE6003FF078EF3FF06DEF3FF00350015C045038
:107EF6000258D8A081EF3FF083EF3FF087EF3FF0C5
:107F06000350015E0450025AD89004320332052E03
:107F160078EF3FF00650D8B493EF3FF095EF3FF07F
:107F260099EF3FF0016C021ED8B0022A01C001F0A1
:107F360002C002F01200000E066E04BEA7EF3FF06C
:107F4600A5EF3FF0ADEF3FF0036C041ED8B0042A56
:107F5600010E066E02BEB4EF3FF0B2EF3FF0BAEF8D
:107F66003FF0016C021ED8B0022A010E061A000E5E
:107F7600086E000E076E03500410D8B4C5EF3FF02C
:107F8600C7EF3FF0EFEF3FF0010E056ECFEF3FF08A
:107F9600D89003360436052A04AED4EF3FF0D6EF68
:107FA6003FF0CBEF3FF0D890073608360350015C20
:107FB60004500258D8A0E2EF3FF0E4EF3FF0E9EFBB
:107FC6003FF00350015E0450025A0780D8900432F5
:107FD6000332052ED6EF3FF00650D8B4F5EF3FF04A
:107FE600F7EF3FF0FBEF3FF0076C081ED8B0082A0A
:0A7FF60007C001F008C002F01200FD
:020000040020DA
:08000000FFFFFFFFFFFFFFFF00
:020000040030CA
:0E00000000051F1FFF8385FF0FC00FE00F409C
:00000001FF
