:020000040000FA
:0400000011EF3FF0CD
:107E2200000114EF3FF00F0EC16E000E956E000EB2
:107E3200836E80A41FEF3FF021EF3FF01AEF3FF077
:107E4200F5EF3FF0800E836E030E026E080E016E98
:107E5200770EE82EFED7012EFCD7022EFAD700F0BD
:107E6200400E836E030E026E080E016E770EE82E30
:107E7200FED7012EFCD7022EFAD700F0200E836E19
:107E8200030E026E080E016E770EE82EFED7012E4B
:107E9200FCD7022EFAD700F0100E836E030E026E8C
:107EA200080E016E770EE82EFED7012EFCD7022EA9
:107EB200FAD700F0080E836E030E026E080E016EF2
:107EC200770EE82EFED7012EFCD7022EFAD700F04D
:107ED200040E836E030E026E080E016E770EE82EFC
:107EE200FED7012EFCD7022EFAD700F0020E836EC7
:107EF200030E026E080E016E770EE82EFED7012EDB
:107F0200FCD7022EFAD700F0010E836E030E026E2A
:107F1200080E016E770EE82EFED7012EFCD7022E38
:107F2200FAD700F0020E836E030E026E080E016E87
:107F3200770EE82EFED7012EFCD7022EFAD700F0DC
:107F4200040E836E030E026E080E016E770EE82E8B
:107F5200FED7012EFCD7022EFAD700F0080E836E50
:107F6200030E026E080E016E770EE82EFED7012E6A
:107F7200FCD7022EFAD700F0100E836E030E026EAB
:107F8200080E016E770EE82EFED7012EFCD7022EC8
:107F9200FAD700F0200E836E030E026E080E016EF9
:107FA200770EE82EFED7012EFCD7022EFAD700F06C
:107FB200400E836E030E026E080E016E770EE82EDF
:107FC200FED7012EFCD7022EFAD700F0800E836E68
:107FD200030E026E080E016E770EE82EFED7012EFA
:107FE200FCD7022EFAD700F080A4FAEF3FF0FCEFA4
:0E7FF2003FF023EF3FF01AEF3FF000EF00F0FA
:020000040020DA
:08000000FFFFFFFFFFFFFFFF00
:020000040030CA
:0E00000000051F1FFF8385FF0FC00FE00F409C
:00000001FF
