:020000040000FA
:0400000007EF00F016
:100008001982EDED00F071EF01F009C011F00AC09E
:1000180012F0000E066E000E056E12BE1DEF00F007
:10002800125009E10A0E115CD8A01DEF00F01FEF75
:1000380000F035EF00F0F60E1124116EFF0E1220BD
:10004800126E054A062A12BE35EF00F0125007E17B
:100058000A0E115CD8B033EF00F035EF00F01FEF57
:1000680000F011C003F012C004F005C00FF006C084
:1000780010F00F3A103AF00E10160F500F0B101226
:10008800F00E0F160FC005F010C006F00350051053
:10009800016E04500610026E01C00DF002C00EF091
:1000A80012000BC011F00CC012F0000E066E000E0C
:1000B800056E12BE69EF00F0125009E10A0E115CDC
:1000C800D8A069EF00F06BEF00F081EF00F0F60EBA
:1000D8001124116EFF0E1220126E054A062A12BE56
:1000E80081EF00F0125007E10A0E115CD8B07FEFE3
:1000F80000F081EF00F06BEF00F011C003F012C0C8
:1001080004F005C00FF006C010F00F3A103AF00ED8
:1001180010160F500F0B1012F00E0F160FC005F02F
:1001280010C006F003500510016E04500610026E50
:1001380001C00DF002C00EF0120007C011F008C097
:1001480012F0000E066E000E056E12BEB5EF00F03E
:10015800125009E10A0E115CD8A0B5EF00F0B7EF14
:1001680000F0CDEF00F0F60E1124116EFF0E1220F4
:10017800126E054A062A12BECDEF00F0125007E1B2
:100188000A0E115CD8B0CBEF00F0CDEF00F0B7EF5E
:1001980000F011C003F012C004F005C00FF006C053
:1001A80010F00F3A103AF00E10160F500F0B1012F5
:1001B800F00E0F160FC005F010C006F00350051022
:1001C800016E04500610026E01C00DF002C00EF060
:1001D80012000600F2A4F3EF00F0F5EF00F02AEFAA
:1001E80001F0074A082A3C0E07180810D8A4FFEFA8
:1001F80000F001EF01F007EF01F0094A0A2A000EAA
:10020800086E000E076E3C0E09180A10D8A40FEFEE
:1002180001F011EF01F017EF01F00B4A0C2A000E64
:100228000A6E000E096E3C0E0B180C10D8A41FEFB6
:1002380001F021EF01F025EF01F0000E0C6E000E29
:100248000B6EEC0ED76E780ED66EF29419921100E2
:1002580050EC01F063EC01F0EC0ED76E780ED66E20
:10026800A1EC00F00DC013F00EC014F013C083FF12
:1002780009EC00F00DC015F00EC016F015C081FF96
:1002880055EC00F00DC017F00EC018F017C080FF35
:1002980034EF01F007EF00F00F0EC16E000E946E00
:1002A800000E826E000E956E000E836E000E936E29
:1002B800000E816E000E926E000E806E1200F29E8D
:1002C800D59AD596D550F80B0109D56ED59CD58E03
:1002D800F294F28AF28CF28E120000EE01F00C0E0B
:1002E800EE6AE806FDE11990199200012CEF01F081
:020000040020DA
:08000000FFFFFFFFFFFFFFFF00
:020000040030CA
:0E00000000051F1FFF8385FF0FC00FE00F409C
:00000001FF
