:020000040000FA
:0400000007EF00F016
:10000800048209ED00F05AEF00F0060001500210DA
:10001800D8A411EF00F013EF00F02EEF00F089A044
:1000280018EF00F01CEF00F0036A032A1DEF00F040
:10003800036A89500318FE0B0318896E000ED76EE9
:10004800CD0ED66E000E026E010E016ED6CF80FF69
:1000580041EF00F001040210D8A435EF00F037EFAB
:1000680000F041EF00F0000ED76E330ED66E000E92
:10007800026E000E016ED6CF80FFF294049211003A
:10008800F29EF28CF28AF294F28ED58ED58CD59AA5
:10009800D596070ED5121200000E926E000E806ED5
:1000A80044EC00F056EF00F007EF00F0026A016A36
:0A00B80004900492000150EF00F0E4
:020000040020DA
:08000000FFFFFFFFFFFFFFFF00
:020000040030CA
:0E00000000051F1FFF8385FF0FC00FE00F409C
:00000001FF
