:020000040000FA
:04000000A6EF3FF038
:107F4C000001A9EF3FF00F0EC16E000E926E000EF5
:107F5C00806E80A4B4EF3FF0B6EF3FF0AFEF3FF090
:107F6C00020E806E050E026E0F0E016EF10EE82EE3
:107F7C00FED7012EFCD7022EFAD700F0120E806E1F
:107F8C00050E026E0F0E016EF10EE82EFED7012EBD
:107F9C00FCD7022EFAD700F00A0E806E050E026E88
:107FAC000F0E016EF10EE82EFED7012EFCD7022E1D
:107FBC00FAD700F01A0E806E050E026E0F0E016ECF
:107FCC00F10EE82EFED7012EFCD7022EFAD700F0C8
:107FDC00000E806E050E026E0F0E016EF10EE82E75
:107FEC00FED7012EFCD7022EFAD700F0AFEF3FF0F0
:047FFC0000EF00F0A2
:020000040020DA
:08000000FFFFFFFFFFFFFFFF00
:020000040030CA
:0E00000000051F1FFF8385FF0FC00FE00F409C
:00000001FF
