:020000040000FA
:04000000FDEF3BF0E5
:1077C0003F0006005B004F0066006D007D00070073
:1077D0007F006F0001500302F3CF05F0F4CF06F0F5
:1077E00001500402F350062602500302F35006260D
:1077F00005C001F006C002F01200C00EF66E770E52
:10780000F76E000EF86E00EE2FF010EE14F0090087
:10781000F5CFEEFFE550E150FAE10001CAEF3CF090
:10782000000E066E02BE19EF3CF017EF3CF01FEFA2
:107830003CF0016C021ED8B0022A010E066E04BE96
:1078400026EF3CF024EF3CF02AEF3CF0036C041EE2
:10785000D8B0042A03500410D8B431EF3CF033EF11
:107860003CF057EF3CF0010E056E3BEF3CF0D8903A
:1078700003360436052A04AE40EF3CF042EF3CF0FC
:1078800037EF3CF00350015C04500258D8A04BEF96
:107890003CF04DEF3CF051EF3CF00350015E0450E2
:1078A000025AD89004320332052E42EF3CF00650C3
:1078B000D8B45DEF3CF05FEF3CF063EF3CF0016C5F
:1078C000021ED8B0022A01C001F002C002F012006C
:1078D000000E0C6E0ABE71EF3CF06FEF3CF077EFDC
:1078E0003CF0096C0A1ED8B00A2A010E0C6E08BEC4
:1078F0007EEF3CF07CEF3CF084EF3CF0076C081E20
:10790000D8B0082A010E0C1A000E0E6E000E0D6E75
:1079100009500A10D8B48FEF3CF091EF3CF0B9EF6A
:107920003CF0010E0B6E99EF3CF0D89009360A3608
:107930000B2A0AAE9EEF3CF0A0EF3CF095EF3CF036
:10794000D8900D360E360950075C0A500858D8A05A
:10795000ACEF3CF0AEEF3CF0B3EF3CF00950075E0B
:107960000A50085A0D80D8900A3209320B2EA0EF27
:107970003CF00C50D8B4BFEF3CF0C1EF3CF0C5EF89
:107980003CF00D6C0E1ED8B00E2A0DC007F00EC0D4
:1079900008F0120020EE2FF010EE0FF0130EDBCFE8
:1079A000E3FFE806FCE2010E926E000E936E000EFD
:1079B000956E000E816E000E836EC198C19AC15003
:1079C000F00B0D09C16EC294C050C70B1009C06EF8
:1079D000C050F80B0409C06EC08EC280C282C2B211
:1079E000F4EF3CF0F6EF3CF0EFEF3CF0C4CF27F0C3
:1079F000286A2750286E276AC3502724276E000E56
:107A00002820286E27C001F028C002F0000E046E66
:107A1000050E036EEAEC3BF001C007F002C008F06F
:107A2000040E0A6E000E096E68EC3CF007C02DF0E3
:107A300008C02EF02DC001F02EC002F0000E046E22
:107A40000A0E036EEAEC3BF001C02DF002C02EF0EE
:107A50002EBE34EF3DF02E5009E10A0E2D5CD8A069
:107A600034EF3DF036EF3DF046EF3DF02DC007F02E
:107A70002EC008F0000E0A6E0A0E096E68EC3CF08B
:107A800007C029F008C02AF054EF3DF02DC001F0E6
:107A90002EC002F0000E046E0A0E036E10EC3CF0D5
:107AA00001C02BF002C02CF0000E246E000E236EDD
:107AB000D8902934D96E2A34DA6E0F0ED926000EEA
:107AC000DA22DF50836E2D502E10D8B46AEF3DF0CD
:107AD0006CEF3DF079EF3DF02EBE79EF3DF02E508A
:107AE00006E12D04D8B077EF3DF079EF3DF088EF57
:107AF0003DF0D8902934D96E2A34DA6E0F0ED9268B
:107B0000000EDA22DF50836E3F0E836E4AEF3EF0A6
:107B10002D042E10D8B48FEF3DF091EF3DF09FEF84
:107B20003DF02EBE9FEF3DF02E5007E1020E2D5C82
:107B3000D8B09DEF3DF09FEF3DF0AEEF3DF0D89017
:107B40002934D96E2A34DA6E0F0ED926000EDA22C5
:107B5000DF50836E060E836E4AEF3EF0020E2D1844
:107B60002E10D8B4B6EF3DF0B8EF3DF0C6EF3DF0C3
:107B70002EBEC6EF3DF02E5007E1030E2D5CD8B0AF
:107B8000C4EF3DF0C6EF3DF0D5EF3DF0D89029347D
:107B9000D96E2A34DA6E0F0ED926000EDA22DF50A3
:107BA000836E5B0E836E4AEF3EF0030E2D182E108F
:107BB000D8B4DDEF3DF0DFEF3DF0EDEF3DF02EBE50
:107BC000EDEF3DF02E5007E1040E2D5CD8B0EBEF49
:107BD0003DF0EDEF3DF0FCEF3DF0D8902934D96E4B
:107BE0002A34DA6E0F0ED926000EDA22DF50836EA9
:107BF0004F0E836E4AEF3EF0040E2D182E10D8B4AF
:107C000004EF3EF006EF3EF014EF3EF02EBE14EF10
:107C10003EF02E5007E1050E2D5CD8B012EF3EF07D
:107C200014EF3EF023EF3EF0D8902934D96E2A3479
:107C3000DA6E0F0ED926000EDA22DF50836E660E42
:107C4000836E4AEF3EF0050E2D182E10D8B42BEFA0
:107C50003EF02DEF3EF03BEF3EF02EBE3BEF3EF010
:107C60002E5007E1060E2D5CD8B039EF3EF03BEF09
:107C70003EF04AEF3EF0D8902934D96E2A34DA6EBD
:107C80000F0ED926000EDA22DF50836E6D0E836E42
:107C90004AEF3EF0000E266E000E256ED8902B3473
:107CA000D96E2C34DA6E0F0ED926000EDA22DF5090
:107CB000816E2D502E10D8B460EF3EF062EF3EF092
:107CC0006FEF3EF02EBE6FEF3EF02E5006E12D041A
:107CD000D8B06DEF3EF06FEF3EF07EEF3EF0D89003
:107CE0002B34D96E2C34DA6E0F0ED926000EDA2220
:107CF000DF50816E3F0E816EDCEF3FF02D042E10C1
:107D0000D8B485EF3EF087EF3EF095EF3EF02EBE03
:107D100095EF3EF02E5007E1020E2D5CD8B093EFA8
:107D20003EF095EF3EF0A4EF3EF0D8902B34D96EA4
:107D30002C34DA6E0F0ED926000EDA22DF50816E57
:107D4000060E816EDCEF3FF0020E2D182E10D8B417
:107D5000ACEF3EF0AEEF3EF0BCEF3EF02EBEBCEF1F
:107D60003EF02E5007E1030E2D5CD8B0BAEF3EF086
:107D7000BCEF3EF0CBEF3EF0D8902B34D96E2C34D4
:107D8000DA6E0F0ED926000EDA22DF50816E5B0EFE
:107D9000816EDCEF3FF0030E2D182E10D8B4D3EF18
:107DA0003EF0D5EF3EF0E3EF3EF02EBEE3EF3EF0C7
:107DB0002E5007E1040E2D5CD8B0E1EF3EF0E3EF6A
:107DC0003EF0F2EF3EF0D8902B34D96E2C34DA6EC0
:107DD0000F0ED926000EDA22DF50816E4F0E816E13
:107DE000DCEF3FF0040E2D182E10D8B4FAEF3EF061
:107DF000FCEF3EF00AEF3FF02EBE0AEF3FF02E50B0
:107E000007E1050E2D5CD8B008EF3FF00AEF3FF018
:107E100019EF3FF0D8902B34D96E2C34DA6E0F0E58
:107E2000D926000EDA22DF50816E660E816EDCEFFD
:107E30003FF0050E2D182E10D8B421EF3FF023EFA0
:107E40003FF031EF3FF02EBE31EF3FF02E5007E113
:107E5000060E2D5CD8B02FEF3FF031EF3FF040EF32
:107E60003FF0D8902B34D96E2C34DA6E0F0ED92611
:107E7000000EDA22DF50816E6D0E816EDCEF3FF076
:107E8000060E2D182E10D8B448EF3FF04AEF3FF001
:107E900058EF3FF02EBE58EF3FF02E5007E1070E8F
:107EA0002D5CD8B056EF3FF058EF3FF067EF3FF052
:107EB000D8902B34D96E2C34DA6E0F0ED926000EE2
:107EC000DA22DF50816E7D0E816EDCEF3FF0070E0F
:107ED0002D182E10D8B46FEF3FF071EF3FF07FEF09
:107EE0003FF02EBE7FEF3FF02E5007E1080E2D5CD5
:107EF000D8B07DEF3FF07FEF3FF08EEF3FF0D890AE
:107F00002B34D96E2C34DA6E0F0ED926000EDA22FD
:107F1000DF50816E070E816EDCEF3FF0080E2D18EA
:107F20002E10D8B496EF3FF098EF3FF0A6EF3FF059
:107F30002EBEA6EF3FF02E5007E1090E2D5CD8B003
:107F4000A4EF3FF0A6EF3FF0B5EF3FF0D8902B3411
:107F5000D96E2C34DA6E0F0ED926000EDA22DF50DD
:107F6000816E7F0E816EDCEF3FF0090E2D182E1012
:107F7000D8B4BDEF3FF0BFEF3FF0CDEF3FF02EBEE6
:107F8000CDEF3FF02E5007E10A0E2D5CD8B0CBEFBD
:107F90003FF0CDEF3FF0DCEF3FF0D8902B34D96EBF
:107FA0002C34DA6E0F0ED926000EDA22DF50816EE5
:107FB0006F0E816EDCEF3FF0254A262A26BEEAEFDF
:107FC0003FF0265009E1140E255CD8A0EAEF3FF0FF
:107FD000ECEF3FF04EEF3EF0234A242A24BEFAEFA6
:107FE0003FF0245009E1140E235CD8A0FAEF3FF0D3
:107FF000FCEF3FF058EF3DF0EEEF3CF000EF00F00B
:020000040020DA
:08000000FFFFFFFFFFFFFFFF00
:020000040030CA
:0E00000000001F1FFF8385FF0FC00FE00F40A1
:00000001FF
