:020000040000FA
:0400000007EF00F016
:10000800048209ED00F046EF00F0060001500210EE
:10001800D8A411EF00F013EF00F015EF00F0014A3B
:10002800022A89B01AEF00F01EEF00F0036A032AD3
:100038001FEF00F0036A010E032689500318FE0B18
:100048000318896E000E026E000E016E010ED76E47
:100058002C0ED66EF29404921100000E926E000ED1
:10006800806EF28AF294F28ED58CD59AD598D59670
:10007800070ED512010ED76E2C0ED66E42EF00F089
:1000880007EF00F0026A016A04900492000131EF60
:0200980000F076
:020000040020DA
:08000000FFFFFFFFFFFFFFFF00
:020000040030CA
:0E00000000051F1FFF8385FF0FC00FE00F409C
:00000001FF
