:020000040000FA
:040000001FEF39F0C5
:10723E000001D7EF3AF0000E066E02BE2BEF39F0CA
:10724E0029EF39F031EF39F0016C021ED8B0022A65
:10725E00010E066E04BE38EF39F036EF39F03CEF12
:10726E0039F0036C041ED8B0042A03500410D8B4AD
:10727E0043EF39F045EF39F069EF39F0010E056E45
:10728E004DEF39F0D89003360436052A04AE52EF8E
:10729E0039F054EF39F049EF39F00350015C0450E6
:1072AE000258D8A05DEF39F05FEF39F063EF39F097
:1072BE000350015E0450025AD89004320332052E58
:1072CE0054EF39F00650D8B46FEF39F071EF39F052
:1072DE0075EF39F0016C021ED8B0022A01C001F020
:1072EE0002C002F01200433444344A6E4A50D8A40D
:1072FE0083EF39F085EF39F08FEF39F0000E416EE4
:10730E00000E426E000E436E000E446EFCEF39F01E
:10731E0041C045F042C046F043C047F044C048F07B
:10732E00200E9FEF39F0D890483247324632453220
:10733E00E82E9AEF39F04550496E438EFF0E4116F6
:10734E00FF0E4216FF0E4316000E4416960E4A5EB0
:10735E004ABEB6EF39F0B4EF39F0CCEF39F04A50FF
:10736E00800A970FD8B0BEEF39F0C0EF39F0C2EFF8
:10737E0039F085EF39F0D8904432433242324132FF
:10738E004A3EC2EF39F0E4EF39F01F0E4A64D2EFF5
:10739E0039F0D4EF39F0DCEF39F085EF39F0D890D1
:1073AE0041364236433644364A064A50D8A4E2EFB6
:1073BE0039F0E4EF39F0D6EF39F04950D8B4EAEFAE
:1073CE0039F0ECEF39F0F4EF39F0441E431E421E53
:1073DE00416C000E42224322442241C041F042C081
:1073EE0042F043C043F044C044F01200096E09500D
:1073FE00D8B404EF3AF006EF3AF028EF3AF004BEB4
:10740E000DEF3AF00BEF3AF028EF3AF001C005F02D
:10741E0002C006F003C007F004C008F0051E061EE9
:10742E00071E081E052A000E06220722082205C086
:10743E000BF006C00CF007C00DF008C00EF030EFD8
:10744E003AF001C00BF002C00CF003C00DF004C006
:10745E000EF00150021003100410D8A439EF3AF0C8
:10746E003BEF3AF045EF3AF0000E016E000E026E61
:10747E00000E036E000E046ED6EF3AF0960E0A6EF4
:10748E004FEF3AF00A2AD8900E320D320C320B32F0
:10749E00000E0B14056E000E0C14066E000E0D146D
:1074AE00076EFE0E0E14086E05500610071008101B
:1074BE00D8A464EF3AF066EF3AF049EF3AF074EF81
:1074CE003AF00A2A010E0B26000E0C220D220E2275
:1074DE00D8900E320D320C320B32000E0B14056E9C
:1074EE00000E0C14066E000E0D14076EFF0E0E1419
:1074FE00086E0550061007100810D8A489EF3AF050
:10750E008BEF3AF068EF3AF093EF3AF00A06D89024
:10751E000B360C360D360E360DBE98EF3AF09AEF4E
:10752E003AF0A2EF3AF0020E0A60A0EF3AF0A2EFA4
:10753E003AF08DEF3AF00AB0A7EF3AF0A9EF3AF031
:10754E00AAEF3AF00D9ED8900A320AC005F0066AEC
:10755E00076A086A05C008F0076A066A056A0550D8
:10756E000B1206500C1207500D1208500E12095035
:10757E00D8B4C4EF3AF0C6EF3AF0CEEF3AF004BE0C
:10758E00CDEF3AF0CBEF3AF0CEEF3AF00E8E0BC0D5
:10759E0001F00CC002F00DC003F00EC004F012009A
:1075AE00010E926E000E936E000E956E000E946E8E
:1075BE00010E966E000E816E000E836E000E826EB0
:1075CE00000E846EC198C19AC150F00B0D09C16EA8
:1075DE00C294C050C70B1009C06EC050F80B0409FE
:1075EE00C06EC08EC280C282C2B200EF3BF002EF0C
:1075FE003BF0FBEF3AF0C450546E536AC350532421
:10760E00536E000E5420546E53C001F054C002F05D
:10761E00000E02BEFF0E036E046E010EFDEC39F07D
:10762E00000E136E000E146EA00E156E400E166E2A
:10763E0053C001F054C002F0000E02BEFF0E036EE6
:10764E00046E010EFDEC39F001C00FF002C010F017
:10765E0003C011F004C012F0EBEC3DF00FC028F0A7
:10766E0010C029F011C02AF012C02BF0000E2C6EA3
:10767E00C00E2D6E7F0E2E6E440E2F6E1EEC3CF045
:10768E0028C04DF029C04EF02AC04FF02BC050F04C
:10769E004DC041F04EC042F04FC043F050C044F0D8
:1076AE007AEC39F04150816E000E136E000E146E9E
:1076BE00200E156E410E166E4DC00FF04EC010F01E
:1076CE004FC011F050C012F0EBEC3DF00FC041F086
:1076DE0010C042F011C043F012C044F07AEC39F001
:1076EE0041C053F042C054F053C001F054C002F0F8
:1076FE00000E046E0A0E036E22EC39F001C04BF040
:10770E0002C04CF04BC083FF0A0E2C6ED70E2D6EAE
:10771E00230E2E6E3C0E2F6E4DC028F04EC029F05B
:10772E004FC02AF050C02BF01EEC3CF028C041F0A8
:10773E0029C042F02AC043F02BC044F07AEC39F055
:10774E0041C051F042C052F052BEB7EF3BF0525022
:10775E0009E1500E515CD8A0B7EF3BF0B9EF3BF00A
:10776E00CAEF3BF084A0BEEF3BF0C0EF3BF0CAEF98
:10777E003BF084A2C5EF3BF0C7EF3BF0CAEF3BF006
:10778E008280FAEF3AF052BED8EF3BF0525007E14A
:10779E00510E515CD8B0D6EF3BF0D8EF3BF0E9EF8D
:1077AE003BF084A0DDEF3BF0DFEF3BF0E9EF3BF089
:1077BE0084A4E4EF3BF0E6EF3BF0E9EF3BF0828090
:1077CE00FAEF3AF052BEF7EF3BF0525007E1510E8E
:1077DE00515CD8B0F5EF3BF0F7EF3BF001EF3CF02A
:1077EE0084A2FCEF3BF0FEEF3BF001EF3CF0828019
:1077FE00FAEF3AF052BE0DEF3CF0525009E1500E46
:10780E00515CD8A00DEF3CF00FEF3CF019EF3CF0BF
:10781E0084A414EF3CF016EF3CF019EF3CF082809C
:10782E00FAEF3AF08290FAEF3AF000EF00F02B50B8
:10783E00800B386E2B502B243F6E2AAE29EF3CF076
:10784E002BEF3CF02CEF3CF03F803F50D8B432EFA2
:10785E003CF034EF3CF049EF3CF03F28D8A43AEF2F
:10786E003CF03CEF3CF044EF3CF0000E286E000E76
:10787E00296E000E2A6E000E2B6E2A8E000E2B6EB7
:10788E0051EF3CF0000E286E000E296E000E2A6E8F
:10789E00000E2B6E2F50800B381A2F502F24406E57
:1078AE002EAE5CEF3CF05EEF3CF05FEF3CF04080C4
:1078BE004050D8B465EF3CF067EF3CF07CEF3CF005
:1078CE004028D8A46DEF3CF06FEF3CF077EF3CF022
:1078DE00000E2C6E000E2D6E000E2E6E000E2F6EF4
:1078EE002E8E000E2F6E84EF3CF0000E2C6E000ECE
:1078FE002D6E000E2E6E000E2F6E2C502D102E1093
:10790E002F10D8A48DEF3CF08FEF3CF0A7EF3CF09A
:10791E00000E286E000E296E000E2A6E000E2B6EC3
:10792E00800E2A127F0E2B1238502B1228C028F0F0
:10793E0029C029F02AC02AF02BC02BF0EAEF3DF027
:10794E003F50D8A4ADEF3CF0AFEF3CF0B9EF3CF0B8
:10795E00000E286E000E296E000E2A6E000E2B6E83
:10796E00EAEF3DF040503FC030F0316A305E000E1D
:10797E00315A7F0E3024396E000E31203A6E28C0F7
:10798E0034F029C035F02AC036F02BC037F0000E87
:10799E00286E000E296E000E2A6E000E2B6E000E43
:1079AE003B6E000E3C6E000E3D6E000E3E6E000EE7
:1079BE00406E1AEF3DF04050D8B4E8EF3CF0EAEFDD
:1079CE003CF001EF3DF0D89034363536363637364A
:1079DE00D890283629362A362B363EAEF9EF3CF0B3
:1079EE00FBEF3CF0FCEF3CF02880D8903B363C3669
:1079FE003D363E362C50345C2D5035582E50365870
:107A0E002F503758D8A00EEF3DF010EF3DF019EF84
:107A1E003DF03E8C2C50345E2D50355A2E50365A39
:107A2E002F50375A402A190E406420EF3DF022EFB6
:107A3E003DF0E2EF3CF03450351036103710D8B42C
:107A4E002BEF3DF02DEF3DF045EF3DF03B8045EF48
:107A5E003DF0D890283629362A362B363EAE3AEFF0
:107A6E003DF03CEF3DF03DEF3DF02880D8903B36A9
:107A7E003C363D363E363906D8A03A062AAE4AEF97
:107A8E003DF04CEF3DF030EF3DF0000E406E3EAE5F
:107A9E0053EF3DF055EF3DF079EF3DF0FF0E3B1407
:107AAE00306EFF0E3C14316EFF0E3D14326E7F0EA3
:107ABE003E14336E3050311032103310D8B46AEF9A
:107ACE003DF06CEF3DF070EF3DF0010E406E79EF42
:107ADE003DF028A075EF3DF077EF3DF079EF3DF0EA
:107AEE006CEF3DF04050D8B47FEF3DF081EF3DF0AC
:107AFE00A5EF3DF0010E2826000E29222A222B2268
:107B0E002BA08CEF3DF08EEF3DF0A5EF3DF028C0A1
:107B1E0030F029C031F02AC032F02BC033F03334AC
:107B2E00333232323132303230C028F031C029F0A7
:107B3E0032C02AF033C02BF0394A3A2A3ABEB0EF9F
:107B4E003DF03A5008E13928D8A0B0EF3DF0B2EF41
:107B5E003DF0BDEF3DF0000E3A6E3968000E286E16
:107B6E00000E296E000E2A6E000E2B6E3ABECAEF64
:107B7E003DF03A5006E13904D8B0C8EF3DF0CAEFF7
:107B8E003DF0D8EF3DF0000E3A6E000E396E000E4D
:107B9E00286E000E296E000E2A6E000E2B6E000E41
:107BAE00386E39C03FF03FA0DFEF3DF0E1EF3DF022
:107BBE00E4EF3DF02A8EE5EF3DF02A9ED8903F305F
:107BCE002B6E9BEF3CF012001250800B1B6E12506E
:107BDE001224216E11AEF6EF3DF0F8EF3DF0F9EF05
:107BEE003DF021802150D8B4FFEF3DF001EF3EF083
:107BFE0014EF3EF02128D8A407EF3EF009EF3EF037
:107C0E0011EF3EF0000E0F6E000E106E000E116E94
:107C1E00000E126E118E1CEF3EF0000E0F6E000E57
:107C2E00106E000E116E000E126E1650800B1B1A87
:107C3E0016501624206E15AE27EF3EF029EF3EF0BB
:107C4E002AEF3EF020802050D8B430EF3EF032EFD5
:107C5E003EF045EF3EF02028D8A438EF3EF03AEF44
:107C6E003EF042EF3EF0000E136E000E146E000E4C
:107C7E00156E000E166E158E4DEF3EF0000E136E45
:107C8E00000E146E000E156E000E166E2050D8B437
:107C9E0053EF3EF055EF3EF05DEF3EF02150D8A48D
:107CAE005BEF3EF05DEF3EF067EF3EF0000E0F6EC5
:107CBE00000E106E000E116E000E126EFFEF3FF0F2
:107CCE0015500F02F3CF26F0F4CF27F026501C6E7E
:107CDE001D6A1E6A1F6A2750226E236A246A256A4D
:107CEE0014501002F3CF26F0F4CF27F026501C26A6
:107CFE00000E1D221E221F2227502226000E232296
:107D0E002422252213501102F3CF26F0F4CF27F0B0
:107D1E0026501C26000E1D221E221F222750222610
:107D2E00000E2322242225221EC01FF01DC01EF08D
:107D3E001CC01DF01C6A13501002F3CF26F0F4CFB6
:107D4E0027F026501C2627501D22000E1E22000E44
:107D5E001F2214500F02F3CF26F0F4CF27F0265037
:107D6E001C2627501D22000E1E22000E1F221EC092
:107D7E001FF01DC01EF01CC01DF01C6A13500F0218
:107D8E00F3CF26F0F4CF27F026501C2627501D22C5
:107D9E00000E1E22000E1F2215501002F3CF26F0E9
:107DAE00F4CF27F02650222627502322000E24221D
:107DBE00000E252214501102F3CF26F0F4CF27F037
:107DCE002650222627502322000E2422000E252282
:107DDE0015501102F3CF26F0F4CF27F02650176E70
:107DEE002750186E196A1A6A19C01AF018C019F0BD
:107DFE0017C018F0176A1750222618502322195050
:107E0E0024221A5025221CC017F01DC018F01EC0C7
:107E1E0019F01FC01AF0190E1AEF3FF0D8901A324F
:107E2E00193218321732E82E15EF3FF0175022266E
:107E3E0018502322195024221A5025221EC01FF03A
:107E4E001DC01EF01CC01DF01C6A205021C017F072
:107E5E00186A1726000E1822820E1724266EFF0EA1
:107E6E001820276E50EF3FF0D89022362336243656
:107E7E0025361FAE45EF3FF047EF3FF048EF3FF09E
:107E8E002280D8901C361D361E361F362606D8A0E8
:107E9E00270624AE55EF3FF057EF3FF03BEF3FF094
:107EAE00000E206E1FAE5EEF3FF060EF3FF084EFEE
:107EBE003FF0FF0E1C14176EFF0E1D14186EFF0EF2
:107ECE001E14196E7F0E1F141A6E175018101910EB
:107EDE001A10D8B475EF3FF077EF3FF07BEF3FF01D
:107EEE00010E206E84EF3FF022A080EF3FF082EF74
:107EFE003FF084EF3FF077EF3FF02050D8B48AEF99
:107F0E003FF08CEF3FF0B0EF3FF0010E2226000E57
:107F1E0023222422252225A097EF3FF099EF3FF050
:107F2E00B0EF3FF022C017F023C018F024C019F0B4
:107F3E0025C01AF01A341A3219321832173217C0F5
:107F4E0022F018C023F019C024F01AC025F0264ADA
:107F5E00272A27BEBBEF3FF0275008E12628D8A0DE
:107F6E00BBEF3FF0BDEF3FF0C7EF3FF0000E226ECC
:107F7E00000E236E800E246E7F0E256EF5EF3FF001
:107F8E0027BED4EF3FF0275006E12604D8B0D2EF3B
:107F9E003FF0D4EF3FF0E0EF3FF0000E226E000E08
:107FAE00236E000E246E000E256E000E1B6EF5EF76
:107FBE003FF026C021F0FF0E2216FF0E23167F0E75
:107FCE002416000E251621A0EFEF3FF0F1EF3FF043
:107FDE00F2EF3FF0248ED8902130256E1B502512E3
:107FEE0022C00FF023C010F024C011F025C012F0F3
:027FFE0012006F
:020000040020DA
:08000000FFFFFFFFFFFFFFFF00
:020000040030CA
:0E00000000001F1FFF8385FF0FC00FE00F40A1
:00000001FF
