:020000040000FA
:0400000076EF37F070
:106EEC0000011FEF38F0000E2C1A000E2D1A000EA8
:106EFC002E1A800E2F1A28C001F029C002F02AC0C9
:106F0C0003F02BC004F02CC005F02DC006F02EC0F1
:106F1C0007F02FC008F0A0EC3DF001C028F002C033
:106F2C0029F003C02AF004C02BF0120032343334A1
:106F3C00396E3950D8A4A5EF37F0A7EF37F0B1EF81
:106F4C0037F0000E306E000E316E000E326E000EF9
:106F5C00336E1EEF38F030C034F031C035F032C033
:106F6C0036F033C037F0200EC1EF37F0D8903732FF
:106F7C00363235323432E82EBCEF37F03450386EBE
:106F8C00328EFF0E3016FF0E3116FF0E3216000E2B
:106F9C003316960E395E39BED8EF37F0D6EF37F090
:106FAC00EEEF37F03950800A970FD8B0E0EF37F09A
:106FBC00E2EF37F0E4EF37F0A7EF37F0D890333249
:106FCC00323231323032393EE4EF37F006EF38F0FE
:106FDC001F0E3964F4EF37F0F6EF37F0FEEF37F0B1
:106FEC00A7EF37F0D8903036313632363336390693
:106FFC003950D8A404EF38F006EF38F0F8EF37F03A
:10700C003850D8B40CEF38F00EEF38F016EF38F0EB
:10701C00331E321E311E306C000E312232223322CE
:10702C0030C030F031C031F032C032F033C033F008
:10703C001200010E926E000E936E000E956E000EF5
:10704C00816E000E836EC198C19AC150F00B0D0970
:10705C00C16EC294C050C70B1009C06EC050F80B63
:10706C000409C06EC08EC280C282C2B240EF38F03A
:10707C0042EF38F03BEF38F0C4CF4BF04C6A4B503A
:10708C004C6E4B6AC3504B244B6E000E4C204C6E16
:10709C00000E136E000E146EA00E156E400E166EC2
:1070AC004BC001F04CC002F0000E02BEFF0E036E8E
:1070BC00046E010EE4EC38F001C00FF002C010F0C9
:1070CC0003C011F004C012F08BEC3BF00FC028F0A1
:1070DC0010C029F011C02AF012C02BF0000E2C6E3B
:1070EC00C00E2D6E7F0E2E6E440E2F6EBEEC39F040
:1070FC0028C047F029C048F02AC049F02BC04AF0FC
:10710C0047C028F048C029F049C02AF04AC02BF0EB
:10711C00000E2C6E000E2D6E200E2E6E410E2F6E5C
:10712C00BEEC39F028C043F029C044F02AC045F029
:10713C002BC046F0000E136E000E146E200E156E52
:10714C00410E166E43C00FF044C010F045C011F054
:10715C0046C012F08BEC3BF00FC02CF010C02DF0A1
:10716C0011C02EF012C02FF047C028F048C029F0F3
:10717C0049C02AF04AC02BF079EC37F028C030F027
:10718C0029C031F02AC032F02BC033F09CEC37F020
:10719C0030C041F031C042F043C030F044C031F057
:1071AC0045C032F046C033F09CEC37F03050836E63
:1071BC0041C081FF3AEF38F000EF00F0096E095042
:1071CC00D8B4EBEF38F0EDEF38F00FEF39F004BE38
:1071DC00F4EF38F0F2EF38F00FEF39F001C005F0B2
:1071EC0002C006F003C007F004C008F0051E061E1E
:1071FC00071E081E052A000E06220722082205C0BB
:10720C000BF006C00CF007C00DF008C00EF017EF25
:10721C0039F001C00BF002C00CF003C00DF004C03B
:10722C000EF00150021003100410D8A420EF39F016
:10723C0022EF39F02CEF39F0000E016E000E026EC9
:10724C00000E036E000E046EBDEF39F0960E0A6E42
:10725C0036EF39F00A2AD8900E320D320C320B323E
:10726C00000E0B14056E000E0C14066E000E0D14A1
:10727C00076EFE0E0E14086E05500610071008104F
:10728C00D8A44BEF39F04DEF39F030EF39F05BEF1C
:10729C0039F00A2A010E0B26000E0C220D220E22AA
:1072AC00D8900E320D320C320B32000E0B14056ED0
:1072BC00000E0C14066E000E0D14076EFF0E0E144D
:1072CC00086E0550061007100810D8A470EF39F09E
:1072DC0072EF39F04FEF39F07AEF39F00A06D890A7
:1072EC000B360C360D360E360DBE7FEF39F081EFB6
:1072FC0039F089EF39F0020E0A6087EF39F089EF27
:10730C0039F074EF39F00AB08EEF39F090EF39F0B4
:10731C0091EF39F00D9ED8900A320AC005F0066A3A
:10732C00076A086A05C008F0076A066A056A05500C
:10733C000B1206500C1207500D1208500E12095069
:10734C00D8B4ABEF39F0ADEF39F0B5EF39F004BE8E
:10735C00B4EF39F0B2EF39F0B5EF39F00E8E0BC057
:10736C0001F00CC002F00DC003F00EC004F01200CE
:10737C002B50800B386E2B502B243F6E2AAEC9EF4E
:10738C0039F0CBEF39F0CCEF39F03F803F50D8B427
:10739C00D2EF39F0D4EF39F0E9EF39F03F28D8A427
:1073AC00DAEF39F0DCEF39F0E4EF39F0000E286E4B
:1073BC00000E296E000E2A6E000E2B6E2A8E000E09
:1073CC002B6EF1EF39F0000E286E000E296E000EB8
:1073DC002A6E000E2B6E2F50800B381A2F502F2434
:1073EC00406E2EAEFCEF39F0FEEF39F0FFEF39F0C6
:1073FC0040804050D8B405EF3AF007EF3AF01CEF5C
:10740C003AF04028D8A40DEF3AF00FEF3AF017EF0E
:10741C003AF0000E2C6E000E2D6E000E2E6E000E2D
:10742C002F6E2E8E000E2F6E24EF3AF0000E2C6E67
:10743C00000E2D6E000E2E6E000E2F6E2C502D1089
:10744C002E102F10D8A42DEF3AF02FEF3AF047EF73
:10745C003AF0000E286E000E296E000E2A6E000EF9
:10746C002B6E800E2A127F0E2B1238502B1228C036
:10747C0028F029C029F02AC02AF02BC02BF08AEF63
:10748C003BF03F50D8A44DEF3AF04FEF3AF059EFA4
:10749C003AF0000E286E000E296E000E2A6E000EB9
:1074AC002B6E8AEF3BF040503FC030F0316A305EBB
:1074BC00000E315A7F0E3024396E000E31203A6E98
:1074CC0028C034F029C035F02AC036F02BC037F074
:1074DC00000E286E000E296E000E2A6E000E2B6E0A
:1074EC00000E3B6E000E3C6E000E3D6E000E3E6EAE
:1074FC00000E406EBAEF3AF04050D8B488EF3AF034
:10750C008AEF3AF0A1EF3AF0D89034363536363669
:10751C003736D890283629362A362B363EAE99EF98
:10752C003AF09BEF3AF09CEF3AF02880D8903B363B
:10753C003C363D363E362C50345C2D5035582E5052
:10754C0036582F503758D8A0AEEF3AF0B0EF3AF08B
:10755C00B9EF3AF03E8C2C50345E2D50355A2E50EB
:10756C00365A2F50375A402A190E4064C0EF3AF061
:10757C00C2EF3AF082EF3AF0345035103610371033
:10758C00D8B4CBEF3AF0CDEF3AF0E5EF3AF03B80E0
:10759C00E5EF3AF0D890283629362A362B363EAE0F
:1075AC00DAEF3AF0DCEF3AF0DDEF3AF02880D890E1
:1075BC003B363C363D363E363906D8A03A062AAE26
:1075CC00EAEF3AF0ECEF3AF0D0EF3AF0000E406E02
:1075DC003EAEF3EF3AF0F5EF3AF019EF3BF0FF0E59
:1075EC003B14306EFF0E3C14316EFF0E3D14326EA8
:1075FC007F0E3E14336E3050311032103310D8B42D
:10760C000AEF3BF00CEF3BF010EF3BF0010E406E3D
:10761C0019EF3BF028A015EF3BF017EF3BF019EFFB
:10762C003BF00CEF3BF04050D8B41FEF3BF021EF98
:10763C003BF045EF3BF0010E2826000E29222A22B2
:10764C002B222BA02CEF3BF02EEF3BF045EF3BF029
:10765C0028C030F029C031F02AC032F02BC033F0F2
:10766C003334333232323132303230C028F031C020
:10767C0029F032C02AF033C02BF0394A3A2A3ABEEC
:10768C0050EF3BF03A5008E13928D8A050EF3BF0CE
:10769C0052EF3BF05DEF3BF0000E3A6E3968000E96
:1076AC00286E000E296E000E2A6E000E2B6E3ABE4E
:1076BC006AEF3BF03A5006E13904D8B068EF3BF082
:1076CC006AEF3BF078EF3BF0000E3A6E000E396E2D
:1076DC00000E286E000E296E000E2A6E000E2B6E08
:1076EC00000E386E39C03FF03FA07FEF3BF081EFCA
:1076FC003BF084EF3BF02A8E85EF3BF02A9ED8902E
:10770C003F302B6E3BEF3AF012001250800B1B6E89
:10771C0012501224216E11AE96EF3BF098EF3BF015
:10772C0099EF3BF021802150D8B49FEF3BF0A1EFB3
:10773C003BF0B4EF3BF02128D8A4A7EF3BF0A9EF26
:10774C003BF0B1EF3BF0000E0F6E000E106E000E12
:10775C00116E000E126E118EBCEF3BF0000E0F6E10
:10776C00000E106E000E116E000E126E1650800B75
:10777C001B1A16501624206E15AEC7EF3BF0C9EF3E
:10778C003BF0CAEF3BF020802050D8B4D0EF3BF058
:10779C00D2EF3BF0E5EF3BF02028D8A4D8EF3BF03C
:1077AC00DAEF3BF0E2EF3BF0000E136E000E146EBE
:1077BC00000E156E000E166E158EEDEF3BF0000EE2
:1077CC00136E000E146E000E156E000E166E205009
:1077DC00D8B4F3EF3BF0F5EF3BF0FDEF3BF021506D
:1077EC00D8A4FBEF3BF0FDEF3BF007EF3CF0000EB5
:1077FC000F6E000E106E000E116E000E126E9FEFCB
:10780C003DF015500F02F3CF26F0F4CF27F02650A1
:10781C001C6E1D6A1E6A1F6A2750226E236A246A18
:10782C00256A14501002F3CF26F0F4CF27F026501F
:10783C001C26000E1D221E221F2227502226000E5F
:10784C0023222422252213501102F3CF26F0F4CF49
:10785C0027F026501C26000E1D221E221F22275008
:10786C002226000E2322242225221EC01FF01DC01A
:10787C001EF01CC01DF01C6A13501002F3CF26F032
:10788C00F4CF27F026501C2627501D22000E1E2256
:10789C00000E1F2214500F02F3CF26F0F4CF27F066
:1078AC0026501C2627501D22000E1E22000E1F22C1
:1078BC001EC01FF01DC01EF01CC01DF01C6A135012
:1078CC000F02F3CF26F0F4CF27F026501C262750BA
:1078DC001D22000E1E22000E1F2215501002F3CF87
:1078EC0026F0F4CF27F02650222627502322000E14
:1078FC002422000E252214501102F3CF26F0F4CFCF
:10790C0027F02650222627502322000E2422000E78
:10791C00252215501102F3CF26F0F4CF27F0265074
:10792C00176E2750186E196A1A6A19C01AF018C007
:10793C0019F017C018F0176A175022261850232276
:10794C00195024221A5025221CC017F01DC018F003
:10795C001EC019F01FC01AF0190EBAEF3CF0D890E7
:10796C001A32193218321732E82EB5EF3CF0175094
:10797C00222618502322195024221A5025221EC0C8
:10798C001FF01DC01EF01CC01DF01C6A205021C031
:10799C0017F0186A1726000E1822820E1724266E6E
:1079AC00FF0E1820276EF0EF3CF0D89022362336CD
:1079BC00243625361FAEE5EF3CF0E7EF3CF0E8EF60
:1079CC003CF02280D8901C361D361E361F362606FB
:1079DC00D8A0270624AEF5EF3CF0F7EF3CF0DBEF38
:1079EC003CF0000E206E1FAEFEEF3CF000EF3DF0C1
:1079FC0024EF3DF0FF0E1C14176EFF0E1D14186EB5
:107A0C00FF0E1E14196E7F0E1F141A6E17501810CD
:107A1C0019101A10D8B415EF3DF017EF3DF01BEF0D
:107A2C003DF0010E206E24EF3DF022A020EF3DF042
:107A3C0022EF3DF024EF3DF017EF3DF02050D8B48D
:107A4C002AEF3DF02CEF3DF050EF3DF0010E2226D9
:107A5C00000E23222422252225A037EF3DF039EFFA
:107A6C003DF050EF3DF022C017F023C018F024C0B9
:107A7C0019F025C01AF01A341A321932183217328A
:107A8C0017C022F018C023F019C024F01AC025F03A
:107A9C00264A272A27BE5BEF3DF0275008E126280F
:107AAC00D8A05BEF3DF05DEF3DF067EF3DF0000ED1
:107ABC00226E000E236E800E246E7F0E256E95EFC7
:107ACC003DF027BE74EF3DF0275006E12604D8B0F8
:107ADC0072EF3DF074EF3DF080EF3DF0000E226E42
:107AEC00000E236E000E246E000E256E000E1B6E13
:107AFC0095EF3DF026C021F0FF0E2216FF0E231647
:107B0C007F0E2416000E251621A08FEF3DF091EF6D
:107B1C003DF092EF3DF0248ED8902130256E1B5015
:107B2C00251222C00FF023C010F024C011F025C084
:107B3C0012F012000450800B0D6E045004240F6ED2
:107B4C0003AEABEF3DF0ADEF3DF0AEEF3DF00F808F
:107B5C000F50D8B4B4EF3DF0B6EF3DF0CBEF3DF0A5
:107B6C000F28D8A4BCEF3DF0BEEF3DF0C6EF3DF0C2
:107B7C00000E016E000E026E000E036E000E046EFF
:107B8C00038E000E046ED3EF3DF0000E016E000E5E
:107B9C00026E000E036E000E046E0850800B0E6E0B
:107BAC000D500E18D8B4DDEF3DF0DFEF3DF0E0EFF7
:107BBC003DF00D8C085008240E6E07AEE8EF3DF03A
:107BCC00EAEF3DF0EBEF3DF00E800E50D8B4F1EF44
:107BDC003DF0F3EF3DF008EF3EF00E28D8A4F9EF9E
:107BEC003DF0FBEF3DF003EF3EF0000E056E000E96
:107BFC00066E000E076E000E086E078E000E086EE5
:107C0C0010EF3EF0000E056E000E066E000E076EB5
:107C1C00000E086E0F500E5CD8B017EF3EF019EF47
:107C2C003EF040EF3EF00DAC1EEF3EF020EF3EF08C
:107C3C0022EF3EF0800E0D1A0FC010F00EC00FF0A8
:107C4C0010C00EF001C010F005C001F010C005F01E
:107C5C0002C010F006C002F010C006F003C010F015
:107C6C0007C003F010C007F004C010F008C004F007
:107C7C0010C008F0000E106E0F500EC009F00A6A0A
:107C8C00095E000E0A5A0ABE55EF3EF00A5009E191
:107C9C001A0E095CD8A055EF3EF057EF3EF08EEF70
:107CAC003EF00150021003100410D8A460EF3EF017
:107CBC0063EF3EF0010E64EF3EF0000E106E000E0E
:107CCC00016E000E026E000E036E000E046E0EC0EE
:107CDC000FF097EF3EF010A076EF3EF078EF3EF00D
:107CEC007EEF3EF0D89010300109106E80EF3EF020
:107CFC00D890103201A085EF3EF087EF3EF088EF70
:107D0C003EF0108E043404320332023201320F2A58
:107D1C000E500F5CD8A095EF3EF097EF3EF071EF50
:107D2C003EF00DBC9CEF3EF09EEF3EF0DEEF3EF0E1
:107D3C000F50D8A4A4EF3EF0A6EF3EF0B0EF3EF00B
:107D4C00000E016E000E026E000E036E000E046E2D
:107D5C00FFEF3FF005500126065002220750032288
:107D6C000850042204A0BDEF3EF0BFEF3EF06BEFD5
:107D7C003FF010A0C4EF3EF0C6EF3EF0CCEF3EF06B
:107D8C00D89010300109106ECEEF3EF0D890103222
:107D9C0001A0D3EF3EF0D5EF3EF0D6EF3EF0108EC3
:107DAC00043404320332023201320F2A6BEF3FF0FB
:107DBC000550015C06500258075003580450800AC5
:107DCC00096E0850800A0958D8B0EFEF3EF0F1EF79
:107DDC003EF01CEF3FF00150055C096E0250065856
:107DEC000A6E035007580B6E045008580C6EFF0EA9
:107DFC000924016EFF0E0A20026EFF0E0B20036E8B
:107E0C00FF0E0C20046E800E0D1A106C1050D8A4AE
:107E1C0012EF3FF014EF3FF024EF3FF0010E01267C
:107E2C00000E02220322042224EF3FF00550015ED3
:107E3C000650025A0750035A0850045A01500210B7
:107E4C0003100410D8A42DEF3FF02FEF3FF064EF98
:107E5C003FF01050D8A435EF3FF037EF3FF064EF10
:107E6C003FF0000E016E000E026E000E036E000E4F
:107E7C00046EFFEF3FF0D89001360236033604361D
:107E8C0010AE4BEF3FF04DEF3FF04EEF3FF0018067
:107E9C0010A053EF3FF055EF3FF059EF3FF0D88073
:107EAC0010365BEF3FF0D89010360F50D8B461EF1E
:107EBC003FF063EF3FF064EF3FF00F0603AE69EF66
:107ECC003FF06BEF3FF041EF3FF0000E0E6E10AE47
:107EDC0072EF3FF074EF3FF08CEF3FF010C009F001
:107EEC007F0E0916D8B47DEF3FF07FEF3FF083EFA4
:107EFC003FF0010E0E6E8CEF3FF001A088EF3FF0CB
:107F0C008AEF3FF08CEF3FF07FEF3FF00E50D8B48C
:107F1C0092EF3FF094EF3FF0BFEF3FF0010E0126E0
:107F2C00000E02220322042204A09FEF3FF0A1EFD7
:107F3C003FF0BFEF3FF001C009F002C00AF003C0F0
:107F4C000BF004C00CF00C340C320B320A32093238
:107F5C0009C001F00AC002F00BC003F00CC004F021
:107F6C000F28D8B4BCEF3FF0BEEF3FF0BFEF3FF0AF
:107F7C000F2A0F28D8B4C5EF3FF0C7EF3FF0CFEF73
:107F8C003FF00F50D8A4CDEF3FF0CFEF3FF0E1EF33
:107F9C003FF0000E016E000E026E000E036E000E1E
:107FAC00046E0F50D8A4DDEF3FF0DFEF3FF0E1EFB0
:107FBC003FF0000E0D6E0FA0E6EF3FF0E8EF3FF044
:107FCC00EBEF3FF0038EECEF3FF0039ED8900F30B9
:107FDC00046E0DAEF4EF3FF0F6EF3FF0F7EF3FF02D
:107FEC00048E01C001F002C002F003C003F004C013
:047FFC0004F012007B
:020000040020DA
:08000000FFFFFFFFFFFFFFFF00
:020000040030CA
:0E00000000001F1FFF8385FF0FC00FE00F40A1
:00000001FF
