:020000040000FA
:0400000013EF39F0D1
:10722600000173EF3AF0000E066E02BE1FEF39F052
:107236001DEF39F025EF39F0016C021ED8B0022A95
:10724600010E066E04BE2CEF39F02AEF39F030EF4E
:1072560039F0036C041ED8B0042A03500410D8B4C5
:1072660037EF39F039EF39F05DEF39F0010E056E81
:1072760041EF39F0D89003360436052A04AE46EFBE
:1072860039F048EF39F03DEF39F00350015C045016
:107296000258D8A051EF39F053EF39F057EF39F0D3
:1072A6000350015E0450025AD89004320332052E70
:1072B60048EF39F00650D8B463EF39F065EF39F08E
:1072C60069EF39F0016C021ED8B0022A01C001F044
:1072D60002C002F01200000E0114096E000E021424
:1072E6000A6E800E03140B6E7F0E04140C6E09508A
:1072F6000A100B100C10D8A483EF39F085EF39F083
:107306008DEF39F0000E016E000E026E000E036E58
:10731600000E046E000E0514096E000E06140A6EA9
:10732600800E07140B6E7F0E08140C6E09500A109F
:107336000B100C10D8A4A2EF39F0A4EF39F0ACEF83
:1073460039F0000E056E000E066E000E076E000E7A
:10735600086E04AEB1EF39F0B3EF39F0BCEF39F097
:10736600016C021ED8B0022A031ED8B0032A800E72
:10737600045608AEC1EF39F0C3EF39F0CCEF39F05F
:10738600056C061ED8B0062A071ED8B0072A800E3E
:107396000856000E011A000E021A000E031A800E7D
:1073A600041A000E051A000E061A000E071A800EA1
:1073B600081A0550015C0650025807500358085039
:1073C6000458D8B0E9EF39F0EBEF39F0EEEF39F0C9
:1073D600D890EFEF39F0D88012002A342B34316E72
:1073E6003150D8A4F9EF39F0FBEF39F005EF3AF058
:1073F600000E286E000E296E000E2A6E000E2B6EF1
:1074060072EF3AF028C02CF029C02DF02AC02EF0D9
:107416002BC02FF0200E15EF3AF0D8902F322E32D7
:107426002D322C32E82E10EF3AF02C50306E2A8E88
:10743600FF0E2816FF0E2916FF0E2A16000E2B1613
:10744600960E315E31BE2CEF3AF02AEF3AF042EF5B
:107456003AF03150800A970FD8B034EF3AF036EF51
:107466003AF038EF3AF0FBEF39F0D8902B322A3267
:1074760029322832313E38EF3AF05AEF3AF01F0EF1
:10748600316448EF3AF04AEF3AF052EF3AF0FBEF48
:1074960039F0D890283629362A362B36310631501F
:1074A600D8A458EF3AF05AEF3AF04CEF3AF0305091
:1074B600D8B460EF3AF062EF3AF06AEF3AF02B1E7A
:1074C6002A1E291E286C000E29222A222B2228C0B9
:1074D60028F029C029F02AC02AF02BC02BF0120070
:1074E600010E926E000E936E000E956E000E946E57
:1074F600000E816E000E836E000E826EC198C19AD8
:10750600C150F00B0D09C16EC294C050C70B1009D3
:10751600C06EC050F80B0409C06EC08EC280C28215
:10752600C2B298EF3AF09AEF3AF093EF3AF0C450BD
:10753600486E476AC3504724476E000E4820486E7F
:1075460047C001F048C002F0000E02BEFF0E036EF7
:10755600046E010E44EC3BF0000E136E000E146E2A
:10756600A00E156E400E166E47C001F048C002F020
:10757600000E02BEFF0E036E046E010E44EC3BF0DD
:1075860001C00FF002C010F003C011F004C012F0E9
:10759600EBEC3DF00FC028F010C029F011C02AF026
:1075A60012C02BF0000E2C6EC00E2D6E7F0E2E6EAE
:1075B600440E2F6E1EEC3CF028C043F029C044F068
:1075C6002AC045F02BC046F043C028F044C029F03D
:1075D60045C02AF046C02BF0F0EC39F02850816EF9
:1075E600000E136E000E146E200E156E410E166EF2
:1075F60043C00FF044C010F045C011F046C012F071
:10760600EBEC3DF00FC028F010C029F011C02AF0B5
:1076160012C02BF0F0EC39F028C047F029C048F032
:1076260047C001F048C002F0000E046E0A0E036E59
:1076360016EC39F001C041F002C042F041C083FFB0
:10764600000E016E000E026E200E036E400E046EDA
:1076560043C005F044C006F045C007F046C008F038
:107666006EEC39F0D8A03AEF3BF03CEF3BF03FEF41
:107676003BF0829092EF3AF0828092EF3AF000EF80
:1076860000F0096E0950D8B44BEF3BF04DEF3BF0DC
:107696006FEF3BF004BE54EF3BF052EF3BF06FEF61
:1076A6003BF001C005F002C006F003C007F004C0BD
:1076B60008F0051E061E071E081E052A000E0622D5
:1076C6000722082205C00BF006C00CF007C00DF01B
:1076D60008C00EF077EF3BF001C00BF002C00CF0D3
:1076E60003C00DF004C00EF0015002100310041088
:1076F600D8A480EF3BF082EF3BF08CEF3BF0000E1E
:10770600016E000E026E000E036E000E046E1DEF7B
:107716003CF0960E0A6E96EF3BF00A2AD8900E328F
:107726000D320C320B32000E0B14056E000E0C14CB
:10773600066E000E0D14076EFE0E0E14086E055032
:10774600061007100810D8A4ABEF3BF0ADEF3BF0E6
:1077560090EF3BF0BBEF3BF00A2A010E0B26000E22
:107766000C220D220E22D8900E320D320C320B3224
:10777600000E0B14056E000E0C14066E000E0D1492
:10778600076EFF0E0E14086E05500610071008103F
:10779600D8A4D0EF3BF0D2EF3BF0AFEF3BF0DAEFFF
:1077A6003BF00A06D8900B360C360D360E360DBE5B
:1077B600DFEF3BF0E1EF3BF0E9EF3BF0020E0A6052
:1077C600E7EF3BF0E9EF3BF0D4EF3BF00AB0EEEF2A
:1077D6003BF0F0EF3BF0F1EF3BF00D9ED8900A3214
:1077E6000AC005F0066A076A086A05C008F0076A53
:1077F600066A056A05500B1206500C1207500D1248
:1078060008500E120950D8B40BEF3CF00DEF3CF0C7
:1078160015EF3CF004BE14EF3CF012EF3CF015EF10
:107826003CF00E8E0BC001F00CC002F00DC003F050
:107836000EC004F012002B50800B386E2B502B24F8
:107846003F6E2AAE29EF3CF02BEF3CF02CEF3CF0DC
:107856003F803F50D8B432EF3CF034EF3CF049EF74
:107866003CF03F28D8A43AEF3CF03CEF3CF044EF24
:107876003CF0000E286E000E296E000E2A6E000ED9
:107886002B6E2A8E000E2B6E51EF3CF0000E286EEA
:10789600000E296E000E2A6E000E2B6E2F50800BE6
:1078A600381A2F502F24406E2EAE5CEF3CF05EEF60
:1078B6003CF05FEF3CF040804050D8B465EF3CF0C0
:1078C60067EF3CF07CEF3CF04028D8A46DEF3CF02D
:1078D6006FEF3CF077EF3CF0000E2C6E000E2D6E35
:1078E600000E2E6E000E2F6E2E8E000E2F6E84EF63
:1078F6003CF0000E2C6E000E2D6E000E2E6E000E4D
:107906002F6E2C502D102E102F10D8A48DEF3CF07A
:107916008FEF3CF0A7EF3CF0000E286E000E296EAC
:10792600000E2A6E000E2B6E800E2A127F0E2B1270
:1079360038502B1228C028F029C029F02AC02AF076
:107946002BC02BF0EAEF3DF03F50D8A4ADEF3CF052
:10795600AFEF3CF0B9EF3CF0000E286E000E296E3A
:10796600000E2A6E000E2B6EEAEF3DF040503FC02F
:1079760030F0316A305E000E315A7F0E3024396E97
:10798600000E31203A6E28C034F029C035F02AC0E6
:1079960036F02BC037F0000E286E000E296E000E52
:1079A6002A6E000E2B6E000E3B6E000E3C6E000E15
:1079B6003D6E000E3E6E000E406E1AEF3DF04050DA
:1079C600D8B4E8EF3CF0EAEF3CF001EF3DF0D89098
:1079D6003436353636363736D890283629362A366E
:1079E6002B363EAEF9EF3CF0FBEF3CF0FCEF3CF003
:1079F6002880D8903B363C363D363E362C50345C9B
:107A06002D5035582E5036582F503758D8A00EEFD7
:107A16003DF010EF3DF019EF3DF03E8C2C50345EFA
:107A26002D50355A2E50365A2F50375A402A190E95
:107A3600406420EF3DF022EF3DF0E2EF3CF03450A1
:107A4600351036103710D8B42BEF3DF02DEF3DF042
:107A560045EF3DF03B8045EF3DF0D890283629367E
:107A66002A362B363EAE3AEF3DF03CEF3DF03DEF89
:107A76003DF02880D8903B363C363D363E363906BA
:107A8600D8A03A062AAE4AEF3DF04CEF3DF030EF73
:107A96003DF0000E406E3EAE53EF3DF055EF3DF02B
:107AA60079EF3DF0FF0E3B14306EFF0E3C14316E45
:107AB600FF0E3D14326E7F0E3E14336E3050311081
:107AC60032103310D8B46AEF3DF06CEF3DF070EF32
:107AD6003DF0010E406E79EF3DF028A075EF3DF0C8
:107AE60077EF3DF079EF3DF06CEF3DF04050D8B4C4
:107AF6007FEF3DF081EF3DF0A5EF3DF0010E28262A
:107B0600000E29222A222B222BA08CEF3DF08EEF8D
:107B16003DF0A5EF3DF028C030F029C031F02AC075
:107B260032F02BC033F0333433323232313230322A
:107B360030C028F031C029F032C02AF033C02BF013
:107B4600394A3A2A3ABEB0EF3DF03A5008E13928B0
:107B5600D8A0B0EF3DF0B2EF3DF0BDEF3DF0000E26
:107B66003A6E3968000E286E000E296E000E2A6ED7
:107B7600000E2B6E3ABECAEF3DF03A5006E13904CC
:107B8600D8B0C8EF3DF0CAEF3DF0D8EF3DF0000E9B
:107B96003A6E000E396E000E286E000E296E000E2B
:107BA6002A6E000E2B6E000E386E39C03FF03FA0D5
:107BB600DFEF3DF0E1EF3DF0E4EF3DF02A8EE5EF3B
:107BC6003DF02A9ED8903F302B6E9BEF3CF0120082
:107BD6001250800B1B6E12501224216E11AEF6EF5E
:107BE6003DF0F8EF3DF0F9EF3DF021802150D8B49B
:107BF600FFEF3DF001EF3EF014EF3EF02128D8A450
:107C060007EF3EF009EF3EF011EF3EF0000E0F6E6B
:107C1600000E106E000E116E000E126E118E1CEF0D
:107C26003EF0000E0F6E000E106E000E116E000E6E
:107C3600126E1650800B1B1A16501624206E15AEA7
:107C460027EF3EF029EF3EF02AEF3EF0208020504D
:107C5600D8B430EF3EF032EF3EF045EF3EF020284C
:107C6600D8A438EF3EF03AEF3EF042EF3EF0000E79
:107C7600136E000E146E000E156E000E166E158E27
:107C86004DEF3EF0000E136E000E146E000E156ED4
:107C9600000E166E2050D8B453EF3EF055EF3EF06E
:107CA6005DEF3EF02150D8A45BEF3EF05DEF3EF075
:107CB60067EF3EF0000E0F6E000E106E000E116E96
:107CC600000E126EFFEF3FF015500F02F3CF26F0B5
:107CD600F4CF27F026501C6E1D6A1E6A1F6A2750B5
:107CE600226E236A246A256A14501002F3CF26F006
:107CF600F4CF27F026501C26000E1D221E221F221E
:107D060027502226000E2322242225221350110258
:107D1600F3CF26F0F4CF27F026501C26000E1D22A6
:107D26001E221F2227502226000E2322242225222D
:107D36001EC01FF01DC01EF01CC01DF01C6A135093
:107D46001002F3CF26F0F4CF27F026501C2627503A
:107D56001D22000E1E22000E1F2214500F02F3CF0A
:107D660026F0F4CF27F026501C2627501D22000EA1
:107D76001E22000E1F221EC01FF01DC01EF01CC0BA
:107D86001DF01C6A13500F02F3CF26F0F4CF27F034
:107D960026501C2627501D22000E1E22000E1F22D2
:107DA60015501002F3CF26F0F4CF27F026502226E6
:107DB60027502322000E2422000E252214501102E1
:107DC600F3CF26F0F4CF27F0265022262750232281
:107DD600000E2422000E252215501102F3CF26F0A4
:107DE600F4CF27F02650176E2750186E196A1A6AB4
:107DF60019C01AF018C019F017C018F0176A1750F2
:107E0600222618502322195024221A5025221CC03B
:107E160017F01DC018F01EC019F01FC01AF0190E79
:107E26001AEF3FF0D8901A32193218321732E82E6C
:107E360015EF3FF0175022261850232219502422FE
:107E46001A5025221EC01FF01DC01EF01CC01DF0BA
:107E56001C6A205021C017F0186A1726000E182237
:107E6600820E1724266EFF0E1820276E50EF3FF065
:107E7600D89022362336243625361FAE45EF3FF0FE
:107E860047EF3FF048EF3FF02280D8901C361D3672
:107E96001E361F362606D8A0270624AE55EF3FF01D
:107EA60057EF3FF03BEF3FF0000E206E1FAE5EEF48
:107EB6003FF060EF3FF084EF3FF0FF0E1C14176EAB
:107EC600FF0E1D14186EFF0E1E14196E7F0E1F1462
:107ED6001A6E1750181019101A10D8B475EF3FF013
:107EE60077EF3FF07BEF3FF0010E206E84EF3FF01F
:107EF60022A080EF3FF082EF3FF084EF3FF077EF74
:107F06003FF02050D8B48AEF3FF08CEF3FF0B0EF4F
:107F16003FF0010E2226000E23222422252225A030
:107F260097EF3FF099EF3FF0B0EF3FF022C017F028
:107F360023C018F024C019F025C01AF01A341A32DA
:107F460019321832173217C022F018C023F019C0A0
:107F560024F01AC025F0264A272A27BEBBEF3FF099
:107F6600275008E12628D8A0BBEF3FF0BDEF3FF031
:107F7600C7EF3FF0000E226E000E236E800E246EB9
:107F86007F0E256EF5EF3FF027BED4EF3FF027506A
:107F960006E12604D8B0D2EF3FF0D4EF3FF0E0EF91
:107FA6003FF0000E226E000E236E000E246E000EB1
:107FB600256E000E1B6EF5EF3FF026C021F0FF0E7A
:107FC6002216FF0E23167F0E2416000E251621A05C
:107FD600EFEF3FF0F1EF3FF0F2EF3FF0248ED89055
:107FE6002130256E1B50251222C00FF023C010F041
:0A7FF60024C011F025C012F01200A3
:020000040020DA
:08000000FFFFFFFFFFFFFFFF00
:020000040030CA
:0E00000000001F1FFF8385FF0FC00FE00F40A1
:00000001FF
