:020000040000FA
:040000002BEF01F0F1
:060008001A820BED04F06A
:100018001A80D8CF0BF0E8CF0CF0E0CF0DF0F6CF78
:100028000EF0F7CF0FF0F8CF10F0F5CF11F0000E6B
:10003800836E835081B023EF00F025EF00F06EEF60
:1000480000F081B82AEF00F02CEF00F02EEF00F05E
:10005800010E836E81BA33EF00F035EF00F037EF11
:1000680000F0040E836E81BC3CEF00F03EEF00F020
:1000780040EF00F0070E836E81BE45EF00F047EFBA
:1000880000F06EEF00F08350000E176E090E166E2A
:10009800D8901634F66E1734F76E010EF626080E51
:1000A800F7220800F5CF83FF060E0A6E130E096EBD
:1000B800AE0EE82EFED7092EFCD70A2EFAD784807A
:1000C8001606D8A0170617BE6EEF00F06CEF00F00A
:1000D8004CEF00F081B273EF00F075EF00F099EF8C
:1000E80000F081B87AEF00F07CEF00F07EEF00F0CE
:1000F800020E836E81BA83EF00F085EF00F087EF80
:1001080000F0050E836E81BC8CEF00F08EEF00F0DE
:1001180090EF00F0080E836E81BE95EF00F097EF28
:1001280000F099EF00F0000E836E81B49EEF00F0AE
:10013800A0EF00F0BBEF00F081B8A5EF00F0A7EF4B
:1001480000F0A9EF00F0030E836E81BAAEEF00F065
:10015800B0EF00F0B2EF00F0060E836E81BCB7EF8F
:1001680000F0B9EF00F0BBEF00F0090E836E80A03D
:10017800C0EF00F0C2EF00F0F6EF00F0000E196ECD
:10018800000E186ED8901834F66E1934F76E010EFA
:10019800F626080EF7220800F5CF83FF820E096EB7
:1001A800DE0EE82EFED7092EFCD78480060E0A6ED6
:1001B800130E096EAE0EE82EFED7092EFCD70A2EB6
:1001C800FAD78490184A192A19BEF4EF00F019508A
:1001D80009E1090E185CD8A0F4EF00F0F6EF00F082
:1001E800C6EF00F081A8FBEF00F0FDEF00F0F6EF9E
:1001F80000F081AA02EF01F004EF01F0F6EF00F041
:1002080081AC09EF01F00BEF01F0F6EF00F081AEE1
:1002180010EF01F012EF01F0F6EF00F080B017EFE9
:1002280001F019EF01F0F6EF00F0F290849011C0A0
:10023800F5FF10C0F8FF0FC0F7FF0EC0F6FF0DC0A6
:10024800E0FF0CC0E8FF0BC0D8FF1A9010007DEF4C
:0202580004F0B0
:1008000000000001000200030004000500060007CC
:100810000008000900000600F6CF03F0F7CF04F04F
:10082000F8CF05F0F5CF06F0F28C928080A01BEF98
:1008300004F01DEF04F052EF04F0F290000E086E89
:10084000000E076ED8900734F66E0834F76E010E6E
:10085000F626080EF7220800F5CF83FF820E016E00
:10086000DE0EE82EFED7012EFCD78480060E026E27
:10087000130E016EAE0EE82EFED7012EFCD7022E0F
:10088000FAD78490074A082A08BE50EF04F00850AF
:1008900009E1090E075CD8A050EF04F052EF04F014
:1008A00022EF04F006C0F5FF05C0F8FF04C0F7FF13
:1008B00003C0F6FF1A9211000F0EC16EF19EF00EEA
:1008C000936E0F0E816E000E956E000E836E000EFD
:1008D000966E000E846E010E926E000E806EF28E89
:1008E000F286F290D08EFE0E816EFD0E816EFB0EB2
:1008F000816E73EF04F02BEF01F01A901A92000E44
:0C090000F86E080EF76E00015CEF04F0CA
:020000040020DA
:08000000FFFFFFFFFFFFFFFF00
:020000040030CA
:0E00000000001F1FFF8385FF0FC00FE00F40A1
:00000001FF
