:020000040000FA
:0400000007EF00F016
:0A000800328275ED05F004EF06F0FA
:1008000000000001000200030004000500060007CC
:1008100000080009000000010002000300040005B8
:1008200000060007000800090000000E836E8350D8
:10083000150EF66E20EE05F0130E0900F5CFDEFF63
:10084000E806FBE281B027EF04F029EF04F071EF36
:1008500004F081B82EEF04F030EF04F032EF04F032
:10086000310E1F6E81BA37EF04F039EF04F03BEF21
:1008700004F0340E1F6E81BC40EF04F042EF04F030
:1008800044EF04F0370E1F6E81BE49EF04F04BEFCA
:1008900004F071EF04F08350000E1E6E090E1D6E01
:1008A000D8901D34D96E1E34DA6E050ED926000E8E
:1008B000DA22DF50836E060E046E130E036EAE0E48
:1008C000E82EFED7032EFCD7042EFAD784801D060F
:1008D000D8A01E061EBE71EF04F06FEF04F050EFBB
:1008E00004F081B276EF04F078EF04F09CEF04F0AE
:1008F00081B87DEF04F07FEF04F081EF04F0320E59
:100900001F6E81BA86EF04F088EF04F08AEF04F0DE
:10091000350E1F6E81BC8FEF04F091EF04F093EF62
:1009200004F0380E1F6E81BE98EF04F09AEF04F0C9
:100930009CEF04F0300E1F6E81B4A1EF04F0A3EF22
:1009400004F0BEEF04F081B8A8EF04F0AAEF04F0C1
:10095000ACEF04F0330E1F6E81BAB1EF04F0B3EFC9
:1009600004F0B5EF04F0360E1F6E81BCBAEF04F050
:10097000BCEF04F0BEEF04F0390E1F6E1F50D00F15
:100980001F6E1FC001F0026A1200000E836E83CF3B
:100990001BF01C6A010EF66E20EE05F0130E090026
:1009A000F5CFDEFFE806FBE281B0D9EF04F0DBEF24
:1009B00004F023EF05F081B8E0EF04F0E2EF04F07B
:1009C000E4EF04F0010E836E81BAE9EF04F0EBEF7F
:1009D00004F0EDEF04F0040E836E81BCF2EF04F03E
:1009E000F4EF04F0F6EF04F0070E836E81BEFBEF28
:1009F00004F0FDEF04F023EF05F08350000E1E6EAF
:100A0000090E1D6ED8901D34D96E1E34DA6E050E97
:100A1000D926000EDA22DF50836E060E046E130E06
:100A2000036EAE0EE82EFED7032EFCD7042EFAD7A7
:100A300084801D06D8A01E061EBE23EF05F021EF00
:100A400005F002EF05F081B228EF05F02AEF05F07E
:100A50004EEF05F081B82FEF05F031EF05F033EFE1
:100A600005F0020E836E81BA38EF05F03AEF05F01B
:100A70003CEF05F0050E836E81BC41EF05F043EFBE
:100A800005F045EF05F0080E836E81BE4AEF05F0D4
:100A90004CEF05F04EEF05F0000E836E81B453EF7E
:100AA00005F055EF05F070EF05F081B85AEF05F04D
:100AB0005CEF05F05EEF05F0030E836E81BA63EF25
:100AC00005F065EF05F067EF05F0060E836E81BC5B
:100AD0006CEF05F06EEF05F070EF05F0090E836E18
:100AE0001BC001F01CC002F012000600D9CF22F09A
:100AF000DACF23F0F6CF24F0F7CF25F0F8CF26F0A9
:100B0000F5CF27F0000E316E000E306EC5EC04F00C
:100B100001C028F002C029F028C020F029C021F02F
:100B2000203A213AF00E211620500F0B2112F00E20
:100B3000201620C02AF021C02BF0304A312A2C5038
:100B40002A242E6E2D502B202F6E2EC083FF020ED6
:100B500030183110D8A4AFEF05F0B1EF05F0B1EFC8
:100B600005F081A8B6EF05F0B8EF05F0B1EF05F09C
:100B700081AABDEF05F0BFEF05F0B1EF05F081AC44
:100B8000C4EF05F0C6EF05F0B1EF05F081AECBEF95
:100B900005F0CDEF05F0B1EF05F080B0D2EF05F034
:100BA000D4EF05F0B1EF05F0F290849027C0F5FF87
:100BB00026C0F8FF25C0F7FF24C0F6FF23C0DAFFE8
:100BC00022C0D9FF329211000F0EC16EF19EF00EBD
:100BD000936E0F0E816E000E956E000E836E000EEA
:100BE000966E000E846E010E926E000E806EF28E76
:100BF000F286F290FE0E816EFD0E816EFB0E816E0E
:100C0000FAEF05F007EF00F032903292000EF86E26
:0A0C1000080EF76E0001E4EF05F096
:020000040020DA
:08000000FFFFFFFFFFFFFFFF00
:020000040030CA
:0E00000000001F1FFF8385FF0FC00FE00F40A1
:00000001FF
