:020000040000FA
:040000005FEF1DF0A1
:10080000006C612074656D70657261747572610051
:1008100025322E326620460025322E3266206300B5
:1008200025322E3266206B00494E46004E414E0066
:10083000696E66006E616E0065733A006C6600005A
:10084000000E0001806F000E7F6F5BC091F05CC0F6
:1008500092F05DC093F05EC094F094BF34EF04F06A
:1008600032EF04F04AEF04F0000E806F010E7F6F4C
:1008700091C001F092C002F093C003F094C004F064
:10088000BAEC1CF001C091F002C092F003C093F0EA
:1008900004C094F0000E0001986F000E976FEAC03C
:1008A00084F0EBC085F07F518011D8A45AEF04F09A
:1008B0005CEF04F063EF04F0EEA561EF04F063EF8A
:1008C00004F07DEF04F07F518011D8A46AEF04F0AA
:1008D0006CEF04F072EF04F0000E6A6F2B0E696F7C
:1008E00076EF04F0000E6A6F2D0E696F69C000F19B
:1008F000974B982B8407D8A0850791C001F092C030
:1009000002F093C003F094C004F03FEC18F001042F
:100910000210D8A48EEF04F090EF04F0E7EF04F09B
:10092000BF0E0001606FFF0E616F5F50626F636BFF
:10093000605162276151632363510AE11A0E625DBF
:10094000D8A0A5EF04F0A8EF04F0010EA9EF04F081
:10095000000E6B6F6C6B6B516C11D8B4B2EF04F07E
:10096000B4EF04F0C2EF04F0000E9725016E010E03
:100970009821026E280E036E080E046E90EC1BF098
:10098000CEEF04F0000E9725016E010E9821026E45
:10099000300E036E080E046E90EC1BF00001FD0E8D
:1009A0008427FF0E852359C011F05AC012F0000EA3
:1009B000136E010E146E84C015F085C016F08EEC17
:1009C00019F011C059F012C05AF0F7EF09F091C0B8
:1009D00001F092C002F093C003F094C004F03FEC29
:1009E00018F001500210D8A4F8EF04F0FAEF04F068
:1009F0003AEF05F0BF0E0001606FFF0E616F5F50B0
:100A0000626F636B605162276151632363510AE136
:100A10001A0E625DD8A00FEF05F012EF05F0010E7F
:100A200013EF05F0000E6D6F6E6B6D516E11D8B443
:100A30001CEF05F01EEF05F02CEF05F0000E9725DA
:100A4000016E010E9821026E2C0E036E080E046ECC
:100A500090EC1BF0CEEF04F0000E9725016E010E16
:100A60009821026E340E036E080E046E90EC1BF09B
:100A7000CEEF04F0000E0001996F000E9A6F800E09
:100A80009B6F3F0E9C6F000E966F000E956F91C08E
:100A900001F092C002F093C003F094C004F0000E85
:100AA000056E000E066E000E076E000E086EABECB3
:100AB0001AF0D8B05EEF05F060EF05F0E3EF05F057
:100AC0007FEF05F099C00FF09AC010F09BC011F0B5
:100AD0009CC012F0000E136E000E146E200E156EE8
:100AE000410E166E0EEC0FF00FC099F010C09AF088
:100AF00011C09BF012C09CF00001954B962B91C049
:100B000028F092C029F093C02AF094C02BF0000E78
:100B1000136E000E146E200E156E410E166E99C0E7
:100B20000FF09AC010F09BC011F09CC012F00EECB8
:100B30000FF00FC02CF010C02DF011C02EF012C01D
:100B40002FF0BDEC17F0D8B0A8EF05F0AAEF05F034
:100B500062EF05F0CAEF05F099C028F09AC029F0BD
:100B60009BC02AF09CC02BF0000E2C6E000E2D6E48
:100B7000200E2E6E410E2F6E23EC11F028C099F03E
:100B800029C09AF02AC09BF02BC09CF00001950769
:100B9000D8A0960791C028F092C029F093C02AF0FF
:100BA00094C02BF099C02CF09AC02DF09BC02EF071
:100BB0009CC02FF0BDEC17F0D8A0E1EF05F0E3EFFB
:100BC00005F0ACEF05F05FC007F0086A31EC1BF0F0
:100BD00007500001866F86C083F0670E8619D8A47F
:100BE000F4EF05F0F6EF05F01CEF06F0EC51ED1117
:100BF000D8A4FDEF05F0FFEF05F003EF06F0000EBF
:100C0000ED6F010EEC6FEDBF10EF06F0ED5106E158
:100C1000EC05D8B00EEF06F010EF06F016EF06F078
:100C2000000E826F060E816F25EF06F0ECC081F09A
:100C3000EDC082F025EF06F0EDBF21EF06F023EFC7
:100C400006F010EF06F016EF06F0670E8619D8A42E
:100C50002CEF06F02EEF06F05DEF06F096AF3CEFBE
:100C600006F0FC0E955DFF0E9659D8A03AEF06F0FF
:100C70003CEF06F05BEF06F0FF0E606FFF0E616F5A
:100C800081C062F082C063F06051622761516323CA
:100C90009551625D6351800A646F9651800A645970
:100CA000D8A055EF06F057EF06F05BEF06F0660EA2
:100CB000836F5DEF06F0650E836F81C079F082C0AF
:100CC0007AF0670E8619D8A468EF06F06AEF06F08E
:100CD0007AEF06F0660E8319D8A471EF06F073EF71
:100CE00006F07CEF06F096BF7AEF06F078EF06F09C
:100CF0007CEF06F0794B7A2B660E8319D8A483EF2C
:100D000006F085EF06F0A5EF06F096BF8CEF06F033
:100D10008AEF06F098EF06F0000E996F000E9A6FBA
:100D2000800E9B6F3F0E9C6F000E966F000E956FAE
:100D3000670E8619D8B49FEF06F0A1EF06F0A5EF75
:100D400006F09551792796517A23000E906F000E88
:100D50008F6F91C087F092C088F093C089F094C0E3
:100D60008AF099C065F09AC066F09BC067F09CC09D
:100D700068F036EF07F087C028F088C029F089C0F6
:100D80002AF08AC02BF099C02CF09AC02DF09BC09D
:100D90002EF09CC02FF023EC11F028C041F029C0A8
:100DA00042F02AC043F02BC044F08FEC14F041C055
:100DB0008BF042C08CF043C08DF044C08EF08BC0ED
:100DC00001F08CC002F08DC003F08EC004F03AEC4C
:100DD00017F001C07DF002C07EF087C051F088C0DE
:100DE00052F089C053F08AC054F099C013F09AC0F1
:100DF00014F09BC015F09CC016F08BC00FF08CC097
:100E000010F08DC011F08EC012F00EEC0FF00FC07C
:100E100055F010C056F011C057F012C058F03CEC1D
:100E20001CF051C087F052C088F053C089F054C004
:100E30008AF099C028F09AC029F09BC02AF09CC083
:100E40002BF0000E2C6E000E2D6E200E2E6E410E1D
:100E50002F6E23EC11F028C099F029C09AF02AC017
:100E60009BF02BC09CF000018F4B902B79518F5D34
:100E70009051800A606F7A51800A6059D8A043EF80
:100E800007F045EF07F0BBEF06F099C00FF09AC0EE
:100E900010F09BC011F09CC012F0000E136E000EFB
:100EA000146EA00E156E400E166E0EEC0FF00FC0F5
:100EB0008BF010C08CF011C08DF012C08EF087C086
:100EC00028F088C029F089C02AF08AC02BF08BC096
:100ED0002CF08CC02DF08DC02EF08EC02FF0BDEC0C
:100EE00017F0D8B076EF07F078EF07F083EF07F050
:100EF000000E00018B6F000E8C6F000E8D6F000EC8
:100F00008E6FACEF07F087C001F088C002F089C097
:100F100003F08AC004F08BC005F08CC006F08DC0D1
:100F200007F08EC008F0ABEC1AF0D8A09AEF07F0EB
:100F30009CEF07F0ACEF07F000017DB1A2EF07F0E6
:100F4000A4EF07F0ACEF07F0000E8B6F000E8C6F74
:100F5000000E8D6F000E8E6F91C041F092C042F076
:100F600093C043F094C044F08BC045F08CC046F071
:100F70008DC047F08EC048F0AEEC0CF041C087F059
:100F800042C088F043C089F044C08AF065C099F03F
:100F900066C09AF067C09BF068C09CF0650E0001C7
:100FA0008319D8B4D6EF07F0D8EF07F0DEEF07F0DB
:100FB00095C07BF096C07CF0E2EF07F0000E7C6FEE
:100FC000000E7B6F000E786F000E776F000E766F4D
:100FD000000E756F000E906F000E8F6FDDEF08F042
:100FE00087C028F088C029F089C02AF08AC02BF079
:100FF00099C02CF09AC02DF09BC02EF09CC02FF011
:1010000023EC11F028C041F029C042F02AC043F07F
:101010002BC044F08FEC14F041C08BF042C08CF038
:1010200043C08DF044C08EF08BC001F08CC002F044
:101030008DC003F08EC004F03AEC17F001C07DF0D3
:1010400002C07EF00001EEB928EF08F02AEF08F0A8
:1010500047EF08F07D517E11D8A431EF08F033EF4F
:1010600008F047EF08F0670E8619D8A43AEF08F0A9
:101070003CEF08F047EF08F07CBF43EF08F041EF8A
:1010800008F047EF08F0754B762B91EF08F0775199
:101090007811D8A44EEF08F050EF08F07AEF08F07E
:1010A0007CBF57EF08F055EF08F07AEF08F0000E1C
:1010B0009725D96E010E9821DA6E2E0EDF6E974BB2
:1010C000982B8407D8A08507000E786F010E776FE4
:1010D0007AEF08F0000E9725D96E010E9821DA6E8E
:1010E000300EDF6E974B982B8407D8A085077507C5
:1010F000D8A0760775517611D8A481EF08F083EF58
:1011000008F06AEF08F0000E9725D96E010E9821BD
:10111000DA6E7D51300FDF6E974B982B8407D8A085
:10112000850787C051F088C052F089C053F08AC04B
:1011300054F099C013F09AC014F09BC015F09CC0F5
:1011400016F08BC00FF08CC010F08DC011F08EC067
:1011500012F00EEC0FF00FC055F010C056F011C099
:1011600057F012C058F03CEC1CF051C087F052C050
:1011700088F053C089F054C08AF099C028F09AC012
:1011800029F09BC02AF09CC02BF0000E2C6E000EA4
:101190002D6E200E2E6E410E2F6E23EC11F028C006
:1011A00099F029C09AF02AC09BF02BC09CF0000156
:1011B0007B07D8A07C078F4B902B79518F5D905186
:1011C000800A606F7A51800A6059D8B0EAEF08F05F
:1011D000ECEF08F0FAEF08F098BFF8EF08F098513C
:1011E00009E14B0E975DD8A0F8EF08F0FAEF08F090
:1011F000F0EF07F077517811D8A401EF09F003EF71
:1012000009F014EF09F0EEA908EF09F00AEF09F070
:1012100014EF09F0000E9725D96E010E9821DA6EB1
:101220002E0EDF6E974B982B000E9725D96E010E70
:101230009821DA6E000EDF6E650E8319D8A423EFB5
:1012400009F025EF09F0D3EF04F0000E906F4F0E78
:101250008F6F000E8F25D96E010E9021DA6E000E71
:10126000DF6E000E806F000E7F6F96BF3CEF09F0BF
:101270003AEF09F044EF09F0000E806F010E7F6F26
:10128000956D961FD8B0962B000E826F020E816F5F
:1012900075EF09F08F07D8A09007000E8F25D96E43
:1012A000010E9021DA6E95C001F096C002F0000E9A
:1012B000046E0A0E036E53EC1AF00150300FDF6E0D
:1012C00095C001F096C002F0000E046E0A0E036E87
:1012D000F1EC19F001C095F002C096F00001810711
:1012E000D8A082078407D8A0850795519611D8A465
:1012F0007CEF09F07EEF09F04AEF09F082BF8BEF37
:1013000009F0825106E18105D8B089EF09F08BEF31
:1013100009F04AEF09F08F07D8A090077F5180119C
:10132000D8A495EF09F097EF09F09DEF09F0000EB2
:10133000706F2B0E6F6FA1EF09F0000E706F2D0E06
:101340006F6F000E8F25D96E010E9021DA6E6FC07F
:10135000DFFF8407D8A085078F07D8A09007BF0EAE
:10136000606FFF0E616F5F50626F636B6051622749
:101370006151632363510AE11A0E625DD8A0C3EF85
:1013800009F0C6EF09F0010EC7EF09F0000E736F08
:10139000746B73517411D8A4D0EF09F0D2EF09F037
:1013A000D8EF09F0000E726F650E716FDCEF09F077
:1013B000000E726F450E716F000E8F25D96E010EF3
:1013C0009021DA6E71C0DFFF8407D8A08507000E78
:1013D0009725016E010E9821026E000E8F25036E77
:1013E000010E9021046E90EC1BF0D3EF04F012007C
:1013F0009FC0D9FFA0C0DAFFDECFF6FFDDCFF7FF39
:101400000800F550250AD8A408EF0AF00AEF0AF000
:1014100092EF0CF09FC0D9FFA0C0DAFFDE2A000EC9
:10142000DD22000E0001EB6F000EEA6FEAC0EEF065
:10143000EBC0EFF0EC69ED699FC0D9FFA0C0DAFF07
:10144000DECFF6FFDDCFF7FF0800F5502A0AD8A45B
:101450002CEF0AF02EEF0AF057EF0AF09FC0D9FFE9
:10146000A0C0DAFFDE2A000EDD22A1C0D9FFA2C093
:10147000DAFFDFCFA3F0020EDE26DFCFA4F0000EEE
:10148000DD22A3C0D9FFA4C0DAFFDECFEAF0DDCFB2
:10149000EBF0EBBF50EF0AF04EEF0AF09BEF0AF0D3
:1014A000EE81EA6DEB1FD8B0EB2B9BEF0AF09FC0EB
:1014B000D9FFA0C0DAFFDECF08F0DDCF09F072EC73
:1014C00016F008C0EAF009C0EBF06EEF0AF09FC01A
:1014D000D9FFA0C0DAFFDE2A000EDD22D00E000107
:1014E000A36FFF0EA46F9FC0D9FFA0C0DAFFDECFAD
:1014F000F6FFDDCFF7FF0800F550A56FA66BA351EF
:10150000A527A451A623A6510AE10A0EA55DD8A0DD
:101510008CEF0AF08FEF0AF0010E90EF0AF0000E48
:10152000A76FA86BA751A811D8A499EF0AF09BEF59
:101530000AF067EF0AF09FC0D9FFA0C0DAFFDECF44
:10154000F6FFDDCFF7FF0800F5502E0AD8A4ABEF69
:101550000AF0ADEF0AF02BEF0BF0000EED6F000E6E
:10156000EC6F9FC0D9FFA0C0DAFFDE2A000EDD229B
:101570009FC0D9FFA0C0DAFFDECFF6FFDDCFF7FFB7
:101580000800F5502A0AD8A4C8EF0AF0CAEF0AF0FA
:10159000E7EF0AF09FC0D9FFA0C0DAFFDE2A000EF5
:1015A000DD22A1C0D9FFA2C0DAFFDFCFA3F0020E77
:1015B000DE26DFCFA4F0000EDD22A3C0D9FFA4C039
:1015C000DAFFDECFECF0DDCFEDF02BEF0BF09FC0BC
:1015D000D9FFA0C0DAFFDECF08F0DDCF09F072EC52
:1015E00016F008C0ECF009C0EDF0FEEF0AF09FC065
:1015F000D9FFA0C0DAFFDE2A000EDD22D00E0001E6
:10160000A36FFF0EA46F9FC0D9FFA0C0DAFFDECF8B
:10161000F6FFDDCFF7FF0800F550A56FA66BA351CD
:10162000A527A451A623A6510AE10A0EA55DD8A0BC
:101630001CEF0BF01FEF0BF0010E20EF0BF0000E74
:10164000A96FAA6BA951AA11D8A429EF0BF02BEF0F
:101650000BF0F7EF0AF09FC0D9FFA0C0DAFFDECF92
:10166000F6FFDDCFF7FF0800F550076E086A31EC92
:101670001BF007500001B16FB151D8B442EF0BF02D
:1016800044EF0BF07EEF0BF09FC0D9FFA0C0DAFF54
:10169000DECFA3F0DDCFA4F0010EA327000EA4231C
:1016A000A3C0F6FFA4C0F7FF0800F550076E086A54
:1016B00031EC1BF007500001B26FB251D8B463EFA8
:1016C0000BF065EF0BF07EEF0BF09FC0D9FFA0C0D1
:1016D000DAFFDECFA3F0DDCFA4F0020EA327000EC9
:1016E000A423A3C0F6FFA4C0F7FF0800F550076EBF
:1016F000086A31EC1BF007500001B36F660EB11998
:10170000D8A485EF0BF087EF0BF0C7EF0BF09FC06D
:10171000D9FFA0C0DAFFDECFF6FFDDCFF7FF08006C
:10172000F5CFB4F09FC0D9FFA0C0DAFFDE2A000ECB
:10173000DD22A1C0D9FFA2C0DAFFDFCFA3F0040EE3
:10174000DE26DFCFA4F0000EDD22A3C0D9FFA4C0A7
:10175000DAFFDECFADF0DECFAEF0DECFAFF0DECF22
:10176000B0F09DC059F09EC05AF0ADC05BF0AEC065
:101770005CF0AFC05DF0B0C05EF0B4C05FF020ECD4
:1017800004F059C09DF05AC09EF0ADEF0CF0B10EC0
:10179000016E000E026E3C0E036E080E046E000E0B
:1017A000066E020E056EBEEC18F001500210D8A4B1
:1017B000DCEF0BF0DEEF0BF05AEF0CF09FC0D9FF1F
:1017C000A0C0DAFFDECFA3F0DDCFA4F0010E000150
:1017D000A327000EA423A3C0F6FFA4C0F7FF0800B0
:1017E000F5CFB4F0BF0EA36FFF0EA46F9FC0D9FF5B
:1017F000A0C0DAFFDECFF6FFDDCFF7FF0800F5501F
:10180000A56FA66BA351A527A451A623A6510AE153
:101810001A0EA55DD8A00FEF0CF012EF0CF0010E20
:1018200013EF0CF0000EAB6FAC6BAB51AC11D8B436
:101830001CEF0CF01EEF0CF038EF0CF0A1C0D9FF3C
:10184000A2C0DAFFDFCFA3F0040EDE26DFCFA4F0C4
:10185000000EDD22A3C0D9FFA4C0DAFFDECFADF0B9
:10186000DECFAEF0DECFAFF0DECFB0F050EF0CF059
:10187000A1C0D9FFA2C0DAFFDFCFA3F0040EDE269D
:10188000DFCFA4F0000EDD22A3C0D9FFA4C0DAFF91
:10189000DECFADF0DECFAEF0DECFAFF0DECFB0F01A
:1018A000020E9FC0D9FFA0C0DAFFDE26000EDD22A7
:1018B000B1EF0BF09FC0D9FFA0C0DAFFDECFF6FF7B
:1018C000DDCFF7FF0800F550250AD8A46AEF0CF029
:1018D0006CEF0CF084EF0CF09FC0D9FFA0C0DAFFD2
:1018E000DE2A000EDD22000E026E250E016E9DC066
:1018F00003F09EC004F029EC19F0000E00019E6F69
:10190000010E9D6FADEF0CF09FC0D9FFA0C0DAFFB4
:10191000DE2A000EDD22000E00019E6F000E9D6F7C
:10192000ADEF0CF09FC0D9FFA0C0DAFFDECFF6FF0D
:10193000DDCFF7FF0800F550016E026A9DC003F08D
:101940009EC004F029EC19F09FC0D9FFA0C0DAFFB7
:10195000DE2A000EDD227DEF0CF012004450800BD9
:101960004D6E445044244F6E43AEB9EF0CF0BBEFC4
:101970000CF0BCEF0CF04F804F50D8B4C2EF0CF01D
:10198000C4EF0CF0D9EF0CF04F28D8A4CAEF0CF03C
:10199000CCEF0CF0D4EF0CF0000E416E000E426E56
:1019A000000E436E000E446E438E000E446EE1EF57
:1019B0000CF0000E416E000E426E000E436E000EE3
:1019C000446E4850800B4E6E4D504E18D8B4EBEF1D
:1019D0000CF0EDEF0CF0EEEF0CF04D8C485048247D
:1019E0004E6E47AEF6EF0CF0F8EF0CF0F9EF0CF09E
:1019F0004E804E50D8B4FFEF0CF001EF0DF016EF13
:101A00000DF04E28D8A407EF0DF009EF0DF011EFFF
:101A10000DF0000E456E000E466E000E476E000E75
:101A2000486E478E000E486E1EEF0DF0000E456E9C
:101A3000000E466E000E476E000E486E4F504E5C14
:101A4000D8B025EF0DF027EF0DF04EEF0DF04DACB7
:101A50002CEF0DF02EEF0DF030EF0DF0800E4D1A43
:101A60004FC050F04EC04FF050C04EF041C050F04B
:101A700045C041F050C045F042C050F046C042F071
:101A800050C046F043C050F047C043F050C047F04C
:101A900044C050F048C044F050C048F0000E506EB2
:101AA0004F504EC049F04A6A495E000E4A5A4ABE3B
:101AB00063EF0DF04A5009E11A0E495CD8A063EFBC
:101AC0000DF065EF0DF09CEF0DF04150421043100A
:101AD0004410D8A46EEF0DF071EF0DF0010E72EF0F
:101AE0000DF0000E506E000E416E000E426E000EA4
:101AF000436E000E446E4EC04FF0A5EF0DF050A0A7
:101B000084EF0DF086EF0DF08CEF0DF0D890503093
:101B10000109506E8EEF0DF0D890503241A093EF36
:101B20000DF095EF0DF096EF0DF0508E44344432E9
:101B30004332423241324F2A4E504F5CD8A0A3EF7D
:101B40000DF0A5EF0DF07FEF0DF04DBCAAEF0DF0FD
:101B5000ACEF0DF0ECEF0DF04F50D8A4B2EF0DF05C
:101B6000B4EF0DF0BEEF0DF0000E416E000E426EB0
:101B7000000E436E000E446E0DEF0FF045504126EF
:101B800046504222475043224850442244A0CBEFC3
:101B90000DF0CDEF0DF079EF0EF050A0D2EF0DF07B
:101BA000D4EF0DF0DAEF0DF0D89050300109506EFF
:101BB000DCEF0DF0D890503241A0E1EF0DF0E3EFF3
:101BC0000DF0E4EF0DF0508E443444324332423293
:101BD00041324F2A79EF0EF04550415C4650425851
:101BE000475043584450800A496E4850800A49582B
:101BF000D8B0FDEF0DF0FFEF0DF02AEF0EF04150E1
:101C0000455C496E425046584A6E435047584B6EA9
:101C1000445048584C6EFF0E4924416EFF0E4A2036
:101C2000426EFF0E4B20436EFF0E4C20446E800E22
:101C30004D1A506C5050D8A420EF0EF022EF0EF049
:101C400032EF0EF0010E4126000E422243224422C2
:101C500032EF0EF04550415E4650425A4750435ACB
:101C60004850445A4150421043104410D8A43BEF0E
:101C70000EF03DEF0EF072EF0EF05050D8A443EF8F
:101C80000EF045EF0EF072EF0EF0000E416E000EFA
:101C9000426E000E436E000E446E0DEF0FF0D890B2
:101CA000413642364336443650AE59EF0EF05BEFC4
:101CB0000EF05CEF0EF0418050A061EF0EF063EF8C
:101CC0000EF067EF0EF0D880503669EF0EF0D89026
:101CD00050364F50D8B46FEF0EF071EF0EF072EF38
:101CE0000EF04F0643AE77EF0EF079EF0EF04FEFA8
:101CF0000EF0000E4E6E50AE80EF0EF082EF0EF042
:101D00009AEF0EF050C049F07F0E4916D8B48BEF11
:101D10000EF08DEF0EF091EF0EF0010E4E6E9AEF79
:101D20000EF041A096EF0EF098EF0EF09AEF0EF045
:101D30008DEF0EF04E50D8B4A0EF0EF0A2EF0EF0E3
:101D4000CDEF0EF0010E4126000E42224322442226
:101D500044A0ADEF0EF0AFEF0EF0CDEF0EF041C0AE
:101D600049F042C04AF043C04BF044C04CF04C3400
:101D70004C324B324A32493249C041F04AC042F0FB
:101D80004BC043F04CC044F04F28D8B4CAEF0EF01B
:101D9000CCEF0EF0CDEF0EF04F2A4F28D8B4D3EF92
:101DA0000EF0D5EF0EF0DDEF0EF04F50D8A4DBEFC4
:101DB0000EF0DDEF0EF0EFEF0EF0000E416E000EB4
:101DC000426E000E436E000E446E4F50D8A4EBEFEF
:101DD0000EF0EDEF0EF0EFEF0EF0000E4D6E4FA097
:101DE000F4EF0EF0F6EF0EF0F9EF0EF0438EFAEF8F
:101DF0000EF0439ED8904F30446E4DAE02EF0FF080
:101E000004EF0FF005EF0FF0448E41C041F042C0E7
:101E100042F043C043F044C044F012001250800B23
:101E20001B6E12501224216E11AE19EF0FF01BEF32
:101E30000FF01CEF0FF021802150D8B422EF0FF0EB
:101E400024EF0FF037EF0FF02128D8A42AEF0FF07E
:101E50002CEF0FF034EF0FF0000E0F6E000E106E2F
:101E6000000E116E000E126E118E3FEF0FF0000E7D
:101E70000F6E000E106E000E116E000E126E1650D8
:101E8000800B1B1A16501624206E15AE4AEF0FF069
:101E90004CEF0FF04DEF0FF020802050D8B453EFEF
:101EA0000FF055EF0FF068EF0FF02028D8A45BEF8C
:101EB0000FF05DEF0FF065EF0FF0000E136E000EE8
:101EC000146E000E156E000E166E158E70EF0FF06C
:101ED000000E136E000E146E000E156E000E166EC0
:101EE0002050D8B476EF0FF078EF0FF080EF0FF0BE
:101EF0002150D8A47EEF0FF080EF0FF08AEF0FF0A3
:101F0000000E0F6E000E106E000E116E000E126E9F
:101F100022EF11F015500F02F3CF26F0F4CF27F087
:101F200026501C6E1D6A1E6A1F6A2750226E236A85
:101F3000246A256A14501002F3CF26F0F4CF27F05C
:101F400026501C26000E1D221E221F22275022264C
:101F5000000E23222422252213501102F3CF26F053
:101F6000F4CF27F026501C26000E1D221E221F2211
:101F700027502226000E2322242225221EC01FF0D5
:101F80001DC01EF01CC01DF01C6A13501002F3CFC0
:101F900026F0F4CF27F026501C2627501D22000ED5
:101FA0001E22000E1F2214500F02F3CF26F0F4CF92
:101FB00027F026501C2627501D22000E1E22000E40
:101FC0001F221EC01FF01DC01EF01CC01DF01C6A89
:101FD00013500F02F3CF26F0F4CF27F026501C2623
:101FE00027501D22000E1E22000E1F221550100227
:101FF000F3CF26F0F4CF27F02650222627502322B5
:10200000000E2422000E252214501102F3CF26F0D8
:10201000F4CF27F02650222627502322000E242218
:10202000000E252215501102F3CF26F0F4CF27F031
:102030002650176E2750186E196A1A6A19C01AF0BE
:1020400018C019F017C018F0176A17502226185038
:102050002322195024221A5025221CC017F01DC01B
:1020600018F01EC019F01FC01AF0190E3DEF10F045
:10207000D8901A32193218321732E82E38EF10F091
:102080001750222618502322195024221A50252294
:102090001EC01FF01DC01EF01CC01DF01C6A205089
:1020A00021C017F0186A1726000E1822820E172476
:1020B000266EFF0E1820276E73EF10F0D890223690
:1020C0002336243625361FAE68EF10F06AEF10F085
:1020D0006BEF10F02280D8901C361D361E361F364E
:1020E0002606D8A0270624AE78EF10F07AEF10F07D
:1020F0005EEF10F0000E206E1FAE81EF10F083EF48
:1021000010F0A7EF10F0FF0E1C14176EFF0E1D1439
:10211000186EFF0E1E14196E7F0E1F141A6E1750C4
:10212000181019101A10D8B498EF10F09AEF10F098
:102130009EEF10F0010E206EA7EF10F022A0A3EF8B
:1021400010F0A5EF10F0A7EF10F09AEF10F020506C
:10215000D8B4ADEF10F0AFEF10F0D3EF10F0010EE8
:102160002226000E23222422252225A0BAEF10F0D9
:10217000BCEF10F0D3EF10F022C017F023C018F01E
:1021800024C019F025C01AF01A341A321932183244
:10219000173217C022F018C023F019C024F01AC05B
:1021A00025F0264A272A27BEDEEF10F0275008E147
:1021B0002628D8A0DEEF10F0E0EF10F0EAEF10F0E4
:1021C000000E226E000E236E800E246E7F0E256E92
:1021D00018EF11F027BEF7EF10F0275006E12604A4
:1021E000D8B0F5EF10F0F7EF10F003EF11F0000E9C
:1021F000226E000E236E000E246E000E256E000E61
:102200001B6E18EF11F026C021F0FF0E2216FF0EF4
:1022100023167F0E2416000E251621A012EF11F0B2
:1022200014EF11F015EF11F0248ED8902130256EA7
:102230001B50251222C00FF023C010F024C011F053
:1022400025C012F012002B50800B386E2B502B241F
:102250003F6E2AAE2EEF11F030EF11F031EF11F09A
:102260003F803F50D8B437EF11F039EF11F04EEF07
:1022700011F03F28D8A43FEF11F041EF11F049EFE2
:1022800011F0000E286E000E296E000E2A6E000E50
:102290002B6E2A8E000E2B6E56EF11F0000E286E5C
:1022A000000E296E000E2A6E000E2B6E2F50800B32
:1022B000381A2F502F24406E2EAE61EF11F063EFCD
:1022C00011F064EF11F040804050D8B46AEF11F083
:1022D0006CEF11F081EF11F04028D8A472EF11F0EB
:1022E00074EF11F07CEF11F0000E2C6E000E2D6ECD
:1022F000000E2E6E000E2F6E2E8E000E2F6E89EFAA
:1023000011F0000E2C6E000E2D6E000E2E6E000EC3
:102310002F6E2C502D102E102F10D8A492EF11F0EC
:1023200094EF11F0ACEF11F0000E286E000E296E44
:10233000000E2A6E000E2B6E800E2A127F0E2B12BC
:1023400038502B1228C028F029C029F02AC02AF0C2
:102350002BC02BF0EFEF12F03F50D8A4B2EF11F0EA
:10236000B4EF11F0BEEF11F0000E286E000E296ED2
:10237000000E2A6E000E2B6EEFEF12F040503FC0A1
:1023800030F0316A305E000E315A7F0E3024396EE3
:10239000000E31203A6E28C034F029C035F02AC032
:1023A00036F02BC037F0000E286E000E296E000E9E
:1023B0002A6E000E2B6E000E3B6E000E3C6E000E61
:1023C0003D6E000E3E6E000E406E1FEF12F040504C
:1023D000D8B4EDEF11F0EFEF11F006EF12F0D89056
:1023E0003436353636363736D890283629362A36BA
:1023F0002B363EAEFEEF11F000EF12F001EF12F0BF
:102400002880D8903B363C363D363E362C50345CE6
:102410002D5035582E5036582F503758D8A013EF1E
:1024200012F015EF12F01EEF12F03E8C2C50345EBD
:102430002D50355A2E50365A2F50375A402A190EE1
:10244000406425EF12F027EF12F0E7EF11F034505F
:10245000351036103710D8B430EF12F032EF12F0DA
:102460004AEF12F03B804AEF12F0D8902836293616
:102470002A362B363EAE3FEF12F041EF12F042EF1C
:1024800012F02880D8903B363C363D363E36390631
:10249000D8A03A062AAE4FEF12F051EF12F035EF06
:1024A00012F0000E406E3EAE58EF12F05AEF12F0EE
:1024B0007EEF12F0FF0E3B14306EFF0E3C14316EB7
:1024C000FF0E3D14326E7F0E3E14336E30503110CD
:1024D00032103310D8B46FEF12F071EF12F075EFC5
:1024E00012F0010E406E7EEF12F028A07AEF12F08B
:1024F0007CEF12F07EEF12F071EF12F04050D8B482
:1025000084EF12F086EF12F0AAEF12F0010E2826E7
:10251000000E29222A222B222BA091EF12F093EFFA
:1025200012F0AAEF12F028C030F029C031F02AC012
:1025300032F02BC033F03334333232323132303276
:1025400030C028F031C029F032C02AF033C02BF05F
:10255000394A3A2A3ABEB5EF12F03A5008E1392822
:10256000D8A0B5EF12F0B7EF12F0C2EF12F0000EE4
:102570003A6E3968000E286E000E296E000E2A6E23
:10258000000E2B6E3ABECFEF12F03A5006E139043E
:10259000D8B0CDEF12F0CFEF12F0DDEF12F0000E59
:1025A0003A6E000E396E000E286E000E296E000E77
:1025B0002A6E000E2B6E000E386E39C03FF03FA021
:1025C000E4EF12F0E6EF12F0E9EF12F02A8EEAEFF4
:1025D00012F02A9ED8903F302B6EA0EF11F012001F
:1025E00070EC1DF04DEC1DF07BEC1DF0010E8C6EBF
:1025F000C282C2B2FEEF12F000EF13F0F9EF12F058
:10260000C4500001F16FF06BC350F025F06F000E65
:10261000F121F16FF0C001F0F1C002F0000E02BE36
:10262000FF0E036E046E010E98EC15F001C0E4F08D
:1026300002C0E5F003C0E6F004C0E7F0000E136E40
:10264000000E146EA00E156E400E166EF0C001F056
:10265000F1C002F0000E02BEFF0E036E046E010E0A
:1026600098EC15F001C00FF002C010F003C011F09B
:1026700004C012F00EEC0FF00FC028F010C029F0CB
:1026800011C02AF012C02BF0000E2C6EC00E2D6E61
:102690007F0E2E6E440E2F6E23EC11F028C0E4F056
:1026A00029C0E5F02AC0E6F02BC0E7F0E4C00FF047
:1026B000E5C010F0E6C011F0E7C012F0000E136E96
:1026C000000E146EC80E156E420E166E0EEC0FF054
:1026D0000FC0E0F010C0E1F011C0E2F012C0E3F072
:1026E000D650D710D8A477EF13F079EF13F0B0EFEE
:1026F00013F0500E0001BD6F010EBE6F180EBF6FBC
:10270000080EC06FE0C0C1F0E1C0C2F0E2C0C3F08B
:10271000E3C0C4F0EAEC1BF081EC1CF0010E036E88
:10272000080E046E61EC1BF0000E066E010E056EC5
:10273000000E086E020E076E380E096E080E0A6E45
:10274000BEEC1BF0000E066E060E056E000E086E47
:10275000020E076E500E096E010E0A6EBEEC1BF0E3
:10276000D604D710D8A4B7EF13F0B9EF13F00BEFDE
:1027700014F0E0C041F0E1C042F0E2C043F0E3C039
:1027800044F0330E456E930E466E880E476E430E30
:10279000486EAEEC0CF041C0DCF042C0DDF043C04E
:1027A000DEF044C0DFF0500E0001BD6F010EBE6FC1
:1027B000200EBF6F080EC06FDCC0C1F0DDC0C2F0DC
:1027C000DEC0C3F0DFC0C4F0EAEC1BF0000E066E02
:1027D000010E056E000E086E020E076E380E096EB1
:1027E000080E0A6EBEEC1BF0000E066E060E056E9D
:1027F000000E086E020E076E500E096E010E0A6E74
:10280000BEEC1BF0820E0001CF6FDD0EE82EFED76E
:10281000CF2FFCD700D0020ED618D710D8A413EFB4
:1028200014F015EF14F0F6EF12F0000E2C6E000EFF
:102830002D6EA00E2E6E400E2F6E000E136E000E2B
:10284000146E100E156E410E166EE0C00FF0E1C052
:1028500010F0E2C011F0E3C012F00EEC0FF00FC068
:1028600028F010C029F011C02AF012C02BF023EC80
:1028700011F028C041F029C042F02AC043F02BC01B
:1028800044F0000E456E000E466E000E476E420E7E
:10289000486EAEEC0CF041C0D8F042C0D9F043C055
:1028A000DAF044C0DBF0500E0001BD6F010EBE6FC8
:1028B000100EBF6F080EC06FD8C0C1F0D9C0C2F0F3
:1028C000DAC0C3F0DBC0C4F0EAEC1BF0000E066E09
:1028D000010E056E000E086E020E076E380E096EB0
:1028E000080E0A6EBEEC1BF0000E066E060E056E9C
:1028F000000E086E020E076E500E096E010E0A6E73
:10290000BEEC1BF0820E0001CF6FDD0EE82EFED76D
:10291000CF2FFCD700D0F6EF12F000EF00F0D0C0C0
:1029200051F0D1C052F0D2C053F0D3C054F041C0E6
:1029300051F042C052F043C053F044C054F0810EF5
:10294000456EFF0E466E51C047F052C048F053C06E
:1029500049F054C04AF0180EB3EF14F0D8904A3240
:10296000493248324732E82EAEEF14F04750452442
:102970004F6E000E4620506E50BEC8EF14F05050FF
:1029800009E1170E4F5CD8A0C8EF14F0CAEF14F09D
:10299000D4EF14F041C041F042C042F043C043F0D4
:1029A00044C044F097EF15F050BED9EF14F0DBEFC0
:1029B00014F04BEF15F04FC045F0FF0E466EFF0EC2
:1029C000476E7F0E486E000E496E4566EAEF14F0C2
:1029D000F2EF14F049344932483247324632452E3C
:1029E000E5EF14F046C04BF047C04CF048C04DF046
:1029F00049C04EF04B505114456E4C505214466E27
:102A00004D505314476E4E505414486E4550461066
:102A100047104810D8A40FEF15F011EF15F013EF81
:102A200015F0CAEF14F051C045F052C046F053C043
:102A300047F054C048F0200E23EF15F0D8904832EC
:102A4000473246324532E82E1EEF15F0455046100B
:102A500047104810D8B42FEF15F031EF15F039EFCB
:102A600015F04B5051264C5052224D5053224E508F
:102A700054224B1C456E4C1C466E4D1C476E4E1C22
:102A8000486E4550511646505216475053164850FE
:102A900054168FEF15F051C045F052C046F053C0A8
:102AA00047F054C048F0200E5BEF15F0D890483244
:102AB000473246324532E82E56EF15F04550461063
:102AC00047104810D8A467EF15F069EF15F073EFC1
:102AD00015F0000E516E000E526E000E536E000E79
:102AE000546E8FEF15F0D8905134456E5234466EC7
:102AF0005334476E5434486E4550461047104810C2
:102B0000D8B485EF15F087EF15F08FEF15F0000EB4
:102B1000516E000E526E800E536EBF0E546E51C039
:102B200041F052C042F053C043F054C044F0120090
:102B3000096E0950D8B49FEF15F0A1EF15F0C3EF5F
:102B400015F004BEA8EF15F0A6EF15F0C3EF15F0D1
:102B500001C005F002C006F003C007F004C008F091
:102B6000051E061E071E081E052A000E0622072245
:102B7000082205C00BF006C00CF007C00DF008C01D
:102B80000EF0CBEF15F001C00BF002C00CF003C04B
:102B90000DF004C00EF00150021003100410D8A470
:102BA000D4EF15F0D6EF15F0E0EF15F0000E016E42
:102BB000000E026E000E036E000E046E71EF16F032
:102BC000960E0A6EEAEF15F00A2AD8900E320D32F0
:102BD0000C320B32000E0B14056E000E0C14066E38
:102BE000000E0D14076EFE0E0E14086E0550061032
:102BF00007100810D8A4FFEF15F001EF16F0E4EF6E
:102C000015F00FEF16F00A2A010E0B26000E0C220B
:102C10000D220E22D8900E320D320C320B32000EE5
:102C20000B14056E000E0C14066E000E0D14076ECC
:102C3000FF0E0E14086E0550061007100810D8A4D9
:102C400024EF16F026EF16F003EF16F02EEF16F035
:102C50000A06D8900B360C360D360E360DBE33EF05
:102C600016F035EF16F03DEF16F0020E0A603BEF5E
:102C700016F03DEF16F028EF16F00AB042EF16F00E
:102C800044EF16F045EF16F00D9ED8900A320AC0B8
:102C900005F0066A076A086A05C008F0076A066A4E
:102CA000056A05500B1206500C1207500D12085001
:102CB0000E120950D8B45FEF16F061EF16F069EF0D
:102CC00016F004BE68EF16F066EF16F069EF16F026
:102CD0000E8E0BC001F00CC002F00DC003F00EC050
:102CE00004F01200000E166E000E156E000E0F6E30
:102CF000000E0E6E7EEF16F0084A092A010E146EC1
:102D000008C0F6FF09C0F7FF0800F550200AD8B444
:102D10008CEF16F08EEF16F0ABEF16F0F70E0A6E92
:102D2000FF0E0B6E08C0F6FF09C0F7FF0800F55054
:102D30000C6E0D6A0A500C260B500D220D5009E145
:102D4000050E0C5CD8A0A7EF16F0A9EF16F0ABEFBC
:102D500016F0000E146E14C010F0116A105011100D
:102D6000D8A4B5EF16F0B7EF16F07CEF16F0C1EF70
:102D700016F0000E0F6E010E0E6E084A092AF6EFCD
:102D800016F008C0F6FF09C0F7FF0800F5500A6EFC
:102D90000B6A0B50000AD8B4D0EF16F0F6EF16F01D
:102DA0000A502B0AD8B4BDEF16F0060AD8B4B9EF12
:102DB00016F0F6EF16F015C001F016C002F0000E86
:102DC000046E0A0E036E3AEC1DF008C0F6FF09C04F
:102DD000F7FF0800F550015E000E025A300E012484
:102DE000156E000E0220166EBDEF16F0D00E0A6EA4
:102DF000FF0E0B6E08C0F6FF09C0F7FF0800F55084
:102E00000C6E0D6A0A500C260B500D220D500AE173
:102E10000A0E0C5CD8A00FEF17F012EF17F0010E9E
:102E200013EF17F0000E126E136A12501310D8A48D
:102E30001CEF17F01EEF17F0DBEF16F00E500F101F
:102E4000D8A425EF17F027EF17F035EF17F015C0CE
:102E50000AF016C00BF00A1E0B1E0A4A0B2A0AC003
:102E600008F00BC009F039EF17F015C008F016C0D4
:102E700009F01200033404340A6E0A50D8A443EF58
:102E800017F045EF17F04FEF17F0000E016E000E30
:102E9000026E000E036E000E046EBCEF17F001C050
:102EA00005F002C006F003C007F004C008F0200ED1
:102EB0005FEF17F0D8900832073206320532E82E5D
:102EC0005AEF17F00550096E038EFF0E0116FF0E24
:102ED0000216FF0E0316000E0416960E0A5E0ABEB8
:102EE00076EF17F074EF17F08CEF17F00A50800AA6
:102EF000970FD8B07EEF17F080EF17F082EF17F042
:102F000045EF17F0D89004320332023201320A3E04
:102F100082EF17F0A4EF17F01F0E0A6492EF17F07C
:102F200094EF17F09CEF17F045EF17F0D8900136AB
:102F30000236033604360A060A50D8A4A2EF17F068
:102F4000A4EF17F096EF17F00950D8B4AAEF17F0D6
:102F5000ACEF17F0B4EF17F0041E031E021E016C55
:102F6000000E02220322042201C001F002C002F07E
:102F700003C003F004C004F01200000E2814306EE9
:102F8000000E2914316E800E2A14326E7F0E2B141F
:102F9000336E3050311032103310D8A4D2EF17F006
:102FA000D4EF17F0DCEF17F0000E286E000E296E3C
:102FB000000E2A6E000E2B6E000E2C14306E000ECA
:102FC0002D14316E800E2E14326E7F0E2F14336E40
:102FD0003050311032103310D8A4F1EF17F0F3EF66
:102FE00017F0FBEF17F0000E2C6E000E2D6E000E8A
:102FF0002E6E000E2F6E2BAE00EF18F002EF18F0C1
:103000000BEF18F0286C291ED8B0292A2A1ED8B038
:103010002A2A800E2B562FAE10EF18F012EF18F060
:103020001BEF18F02C6C2D1ED8B02D2A2E1ED8B0F8
:103030002E2A800E2F56000E281A000E291A000E76
:103040002A1A800E2B1A000E2C1A000E2D1A000EB2
:103050002E1A800E2F1A2C50285C2D5029582E50D5
:103060002A582F502B58D8B038EF18F03AEF18F0F4
:103070003DEF18F0D8903EEF18F0D8801200D4C081
:103080000BF0D5C00CF0D6C00DF0D7C00EF001C0CB
:103090000BF002C00CF003C00DF004C00EF00BC02A
:1030A00005F00CC006F00DC007F00EC008F0180EB9
:1030B0005FEF18F0D8900832073206320532E82E5A
:1030C0005AEF18F00550096E0A6A09500A10D8A480
:1030D0006CEF18F06EEF18F08EEF18F0D8900B34FC
:1030E000056E0C34066E0D34076E0E34086E0550F6
:1030F000061007100810D8A480EF18F082EF18F01F
:1031000088EF18F0000E026E020E016EBDEF18F08F
:10311000000E026E030E016EBDEF18F009280A10B2
:10312000D8A495EF18F097EF18F0B9EF18F00BC08E
:1031300005F00CC006F00DC007F00EC008F0090E37
:10314000D8900536063607360836E82EA0EF18F078
:103150000550061007100810D8B4B1EF18F0B4EFFE
:1031600018F0010EB5EF18F0000E016E026ABDEF07
:1031700018F0000E026E040E016E120001C008F07D
:1031800002C009F003C00AF004C00BF00506D8A085
:103190000606052806E10628D8A4D1EF18F0D3EFDB
:1031A00018F0E0EF18F0000E026E000E016E28EF2E
:1031B00019F0084A092A0A4A0B2A0506D8A0060669
:1031C00008C0D9FF09C0DAFFDF50D8B4EAEF18F021
:1031D000ECEF18F017EF19F00AC0F6FF0BC0F7FF7D
:1031E0000800F5500009D8B4F8EF18F0FAEF18F01D
:1031F00017EF19F005500610D8B401EF19F003EFDE
:1032000019F017EF19F008C0D9FF09C0DAFFDF5035
:10321000076E0AC0F6FF0BC0F7FF0800F55007184D
:10322000D8B415EF19F017EF19F0D9EF18F008C05E
:10323000D9FF09C0DAFFDF50076E0AC0F6FF0BC0E6
:10324000F7FF0800F550075C016E026AD8A002067D
:10325000120003500410D8B430EF19F032EF19F017
:103260003BEF19F003500410D8A439EF19F03BEFED
:1032700019F040EF19F001508FEC1DF08DEF19F0AF
:1032800020EE04F00350D9260450DA22DE50DE107E
:10329000D8B44DEF19F04FEF19F06AEF19F020EEA6
:1032A00004F00350D9260450DA2210EE02F0035045
:1032B000E1260450E222DE50E65CE650800A096E08
:1032C000DE50800A0958D8B068EF19F06AEF19F09B
:1032D0008DEF19F020EE02F00350D9260450DA22C7
:1032E000DECF05F0DDCF06F003C0D9FF04C0DAFF62
:1032F000DECF07F0DDCF08F005500724D96E065069
:103300000820DA6E01C0DFFF20EE02F00350D9265C
:103310000450DA22DE2A000EDD2212000001EEA1A6
:1033200094EF19F096EF19F0A0EF19F013C00AF01E
:1033300014C00BF011C00CF012C00DF05FEC1CF0CB
:1033400016BEA5EF19F0A7EF19F0ADEF19F015C0F3
:103350001AF016C01BF0B1EF19F0000E1B6E000E34
:103360001A6E000E196E000E186EC3EF19F0000EE3
:10337000026E200E016E11C003F012C004F029ECA1
:1033800019F0184A192A1A50185C1950800A176E39
:103390001B50800A1758D8A0D0EF19F0D2EF19F0BF
:1033A000B7EF19F00001EEB1D8EF19F0DAEF19F02C
:1033B000E4EF19F013C00AF014C00BF011C00CF0C8
:1033C00012C00DF05FEC1CF013C001F014C002F04D
:1033D000F2EC1CF01A500124116E1B500220126EE8
:1033E0001200000E066E04BEFAEF19F0F8EF19F0A5
:1033F00000EF1AF0036C041ED8B0042A010E066E0A
:1034000002BE07EF1AF005EF1AF00DEF1AF0016C8B
:10341000021ED8B0022A010E061A000E086E000E17
:10342000076E03500410D8B418EF1AF01AEF1AF010
:1034300042EF1AF0010E056E22EF1AF0D890033613
:103440000436052A04AE27EF1AF029EF1AF01EEF12
:103450001AF0D890073608360350015C0450025821
:10346000D8A035EF1AF037EF1AF03CEF1AF00350FE
:10347000015E0450025A0780D89004320332052EB0
:1034800029EF1AF00650D8B448EF1AF04AEF1AF0B4
:103490004EEF1AF0076C081ED8B0082A07C001F0DA
:1034A00008C002F01200000E066E02BE5CEF1AF0B9
:1034B0005AEF1AF062EF1AF0016C021ED8B0022A1D
:1034C000010E066E04BE69EF1AF067EF1AF06DEF99
:1034D0001AF0036C041ED8B0042A03500410D8B4A8
:1034E00074EF1AF076EF1AF09AEF1AF0010E056EEB
:1034F0007EEF1AF0D89003360436052A04AE83EF27
:103500001AF085EF1AF07AEF1AF00350015C0450BC
:103510000258D8A08EEF1AF090EF1AF094EF1AF03C
:103520000350015E0450025AD89004320332052E33
:1035300085EF1AF00650D8B4A0EF1AF0A2EF1AF0F7
:10354000A6EF1AF0016C021ED8B0022A01C001F0E9
:1035500002C002F01200000E0114096E000E0214E7
:103560000A6E800E03140B6E7F0E04140C6E09504D
:103570000A100B100C10D8A4C0EF1AF0C2EF1AF00A
:10358000CAEF1AF0000E016E000E026E000E036EFE
:10359000000E046E000E0514096E000E06140A6E6D
:1035A000800E07140B6E7F0E08140C6E09500A1063
:1035B0000B100C10D8A4DFEF1AF0E1EF1AF0E9EFCE
:1035C0001AF0000E056E000E066E000E076E000E5D
:1035D000086E055001180FE1065002180CE1075063
:1035E000031809E108500418D8B4F9EF1AF0FBEFFA
:1035F0001AF0FEEF1AF0D890FFEF1AF0D880120000
:10360000B7C0BBF0B8C0BCF0000E0001E96F000EFF
:10361000E86F1EEF1BF0B5C09DF0B6C09EF0BB0E6C
:103620009F6F000EA06FB9C0A1F0BAC0A2F0F8EC75
:1036300009F000019D51E8279E51E923BBC0F6FF28
:10364000BCC0F7FF0800F5500009D8A42AEF1BF012
:103650002CEF1BF00BEF1BF0E8C0B5F0E9C0B6F0A3
:103660001200BF0E096EFF0E0A6E07C00BF008C0F5
:103670000CF009500B260A500C220C500AE11A0ECD
:103680000B5CD8A046EF1BF049EF1BF0010E4AEF90
:103690001BF0000E0D6E0E6A0D500E10D8B453EFD5
:1036A0001BF055EF1BF05CEF1BF0200E0710076EB0
:1036B0000850086E60EF1BF007C007F008C008F064
:1036C000120077EF1BF003C0F6FF04C0F7FFF86AA3
:1036D000070EF76403D00800F55005D0F6CFE1FFE0
:1036E000F7CFE2FFE75025EC1DF0034A042A03C0A0
:1036F000F6FF04C0F7FFF86A070EF76403D008006E
:10370000F55005D0F6CFE1FFF7CFE2FFE750000913
:10371000D8A48DEF1BF08FEF1BF063EF1BF01200AE
:1037200003C007F004C008F001C009F002C00AF0AD
:103730000750056E0850066E074A082A05C0F6FFB6
:1037400006C0F7FFF86A09C0D9FF0AC0DAFF094AC4
:103750000A2A070EF76403D00800F55005D0F6CF0B
:10376000E1FFF7CFE2FFE750DF6EDF50D8A4BBEFF9
:103770001BF0BDEF1BF098EF1BF01200CAEF1BF01F
:103780000550800F0D6EE0EF1BF00550C00F0D6E61
:10379000E0EF1BF007C00BF008C00CF00C50000A63
:1037A000D8B4D5EF1BF0C0EF1BF00B50010AD8B412
:1037B000C0EF1BF0030AD8B4C5EF1BF0C0EF1BF03D
:1037C0000D500DEC1DF009C003F00AC004F061ECCF
:1037D0001BF01200C10E0001C76F000EC86FBDC004
:1037E000C9F0BEC0CAF0000ECC6F000ECB6F000E49
:1037F000CE6F000ECD6FC90EB56F000EB66FBFC095
:10380000B7F0C0C0B8F0C70EB96F000EBA6F00ECC9
:103810001BF00001CB51BD25D96ECC51BE21DA6E13
:10382000000EDF6E1200010E076E200E011802104E
:10383000D8B41DEF1CF01FEF1CF038EF1CF0F70E92
:10384000036EFF0E046E01C005F002C006F00350C7
:10385000052604500622065009E1050E055CD8A095
:1038600034EF1CF036EF1CF038EF1CF0000E076E42
:1038700007C001F0026A1200000E551A000E561A17
:10388000000E571A800E581A51C041F052C042F033
:1038900053C043F054C044F055C045F056C046F004
:1038A00057C047F058C048F0AEEC0CF041C051F0A2
:1038B00042C052F043C053F044C054F01200000E16
:1038C000106E000E0F6E70EF1CF00EC001F0026A59
:1038D0000CC003F00DC004F029EC19F00F4A102AB7
:1038E0000F500A24D96E10500B20DA6EDF500E6E86
:1038F0000E50D8A47EEF1CF080EF1CF065EF1CF09A
:103900001200969096920F0E946E8D908D92000EEE
:103910008B6E410E036EEE0EE82EFED7032EFCD703
:1039200000D0020E0DEC1DF0280E0DEC1DF00C0E5B
:103930000DEC1DF0060E0DEC1DF01200BF0E036E17
:10394000FF0E046E01C005F002C006F0035005260C
:103950000450062206500AE11A0E055CD8A0B3EF07
:103960001CF0B6EF1CF0010EB7EF1CF0000E016E5C
:10397000026A12000150021003100410D8B4C3EF01
:103980001CF0C5EF1CF0CDEF1CF0000E011A000E6C
:10399000021A000E031A800E041A01C001F002C0C0
:1039A00002F003C003F004C004F01200D00E036E56
:1039B000FF0E046E01C005F002C006F0035005269C
:1039C0000450062206500AE10A0E055CD8A0EBEF6F
:1039D0001CF0EEEF1CF0010EEFEF1CF0000E016E7C
:1039E000026A120001C003F002C004F0FAEF1CF0FA
:1039F000014A022A01C0D9FF02C0DAFFDF50D8A471
:103A000004EF1DF006EF1DF0F8EF1CF00350015C11
:103A1000016E04500258026E1200026E8D90025028
:103A2000F00B8B6E86EC1DF002C001F00F0E01163C
:103A30000138F00B8B6E86EC1DF0030E016E980EB4
:103A4000E82EFED7012EFCD71200026E8D800250A8
:103A5000F00B8B6E86EC1DF002C001F00F0E01160C
:103A60000138F00B8B6E86EC1DF0100EE82EFED7A1
:103A700000D0120001500302F3CF05F0F4CF06F09E
:103A800001500402F350062602500302F3500626AA
:103A900005C001F006C002F01200C198C19AC150E1
:103AA000F00B0309C16EC294C050C70B1009C06E61
:103AB000C050F80B0409C06EC08EC280120001EE27
:103AC00000F0640EEE6AE806FDE100EED0F0220E92
:103AD000EE6AE806FDE1000EF86E0001F0EF12F06C
:103AE000010E926E000E966E000E946E000E846EA5
:103AF000000E826E1200F29ED588D58AD586D59C9E
:103B0000D58EF28AF294F28CF28E12008D8200D061
:103B100000D000F08D9200D000D000F01200120012
:020000040020DA
:08000000FFFFFFFFFFFFFFFF00
:020000040030CA
:0E00000000051F1FFF8385FF0FC00FE00F409C
:00000001FF
