:020000040000FA
:0400000033EF00F0EA
:0600080006825BED00F032
:100018000680D8CF01F0E8CF02F0E0CF03F0F2A2DB
:1000280018EF00F01AEF00F02BEF00F0670ED76E14
:10003800690ED66EF29281B024EF00F026EF00F040
:100048002BEF00F08380670ED76E690ED66E03C063
:10005800E0FF02C0E8FF01C0D8FF0690100096EF4D
:1000680000F08DEC00F07AEC00F0F00ED76EBD0ECB
:10007800D66E04500510D8A444EF00F046EF00F007
:100088004AEF00F0838083928384839604040510EA
:10009800D8A451EF00F053EF00F03DEF00F0838259
:1000A8008390838683943DEF00F033EF00F00600E1
:1000B800F2A461EF00F063EF00F078EF00F0044A7B
:1000C800052AF00ED76EBD0ED66EF294020E0418F5
:1000D8000510D8A472EF00F074EF00F078EF00F08C
:1000E800000E056E000E046E06921100F29EF28854
:1000F800F292F18CD08EF28EF28CF19ED59AD59632
:10010800070ED512D59CD58EF294F28AF28CF28E17
:1001180012000F0EC16E300E956E000E836E010E2A
:10012800936E1200056A046A06900692000135EF84
:0201380000F0D5
:020000040020DA
:08000000FFFFFFFFFFFFFFFF00
:020000040030CA
:0E00000000051F1FFF8385FF0FC00FE00F409C
:00000001FF
