:020000040000FA
:040000000DEF3FF0D1
:107E1A00000110EF3FF0000E936E000E816E0F0E00
:107E2A00C16E80A41BEF3FF01DEF3FF016EF3FF04D
:107E3A00800E816E090E026E1E0E016EE40EE82E91
:107E4A00FED7012EFCD7022EFAD700D0C00E816EC3
:107E5A00090E026E1E0E016EE40EE82EFED7012EEA
:107E6A00FCD7022EFAD700D0E00E816E090E026E00
:107E7A001E0E016EE40EE82EFED7012EFCD7022E4E
:107E8A00FAD700D0F00E816E090E026E1E0E016E38
:107E9A00E40EE82EFED7012EFCD7022EFAD700D028
:107EAA00F80E816E090E026E1E0E016EE40EE82EA9
:107EBA00FED7012EFCD7022EFAD700D0FC0E816E17
:107ECA00090E026E1E0E016EE40EE82EFED7012E7A
:107EDA00FCD7022EFAD700D0FE0E816E090E026E72
:107EEA001E0E016EE40EE82EFED7012EFCD7022EDE
:107EFA00FAD700D08168090E026E1E0E016EE40EDA
:107F0A00E82EFED7012EFCD7022EFAD700D0FE0E9D
:107F1A00816E090E026E1E0E016EE40EE82EFED769
:107F2A00012EFCD7022EFAD700D0FC0E816E090E64
:107F3A00026E1E0E016EE40EE82EFED7012EFCD74D
:107F4A00022EFAD700D0F80E816E090E026E1E0EAE
:107F5A00016EE40EE82EFED7012EFCD7022EFAD7C8
:107F6A0000D0F00E816E090E026E1E0E016EE40E36
:107F7A00E82EFED7012EFCD7022EFAD700D0E00E4B
:107F8A00816E090E026E1E0E016EE40EE82EFED7F9
:107F9A00012EFCD7022EFAD700D0C00E816E090E30
:107FAA00026E1E0E016EE40EE82EFED7012EFCD7DD
:107FBA00022EFAD700D0800E816E090E026E1E0EB6
:107FCA00016EE40EE82EFED7012EFCD7022EFAD758
:107FDA0000D0000E816E090E026E1E0E016EE40EB6
:107FEA00E82EFED7012EFCD7022EFAD700D016EFC4
:067FFA003FF000EF00F073
:020000040020DA
:08000000FFFFFFFFFFFFFFFF00
:020000040030CA
:0E00000000051F1FFF8385FF0FC00FE00F409C
:00000001FF
