:020000040000FA
:0400000074EF00F0A9
:100018004A80D8CF08F0E8CF09F0E0CF0AF0F6CF51
:100028000BF0F7CF0CF0F8CF0DF0F5CF0EF0000E77
:10003800146E000E136E98EC0AF001C00FF002C0A7
:1000480010F00FC082FF134A142A13041410D8A406
:1000580030EF00F032EF00F03CEF00F0F2EC09F086
:1000680001C011F002C012F011C083FF134A142A14
:10007800020E13181410D8A444EF00F046EF00F055
:1000880046EF00F081A84BEF00F04DEF00F046EF8F
:1000980000F081AA52EF00F054EF00F046EF00F0B4
:1000A80081AC59EF00F05BEF00F046EF00F081AE55
:1000B80060EF00F062EF00F046EF00F0F2908490FD
:1000C8000EC0F5FF0DC0F8FF0CC0F7FF0BC0F6FF20
:1000D8000AC0E0FF09C0E8FF08C0D8FF4A90100036
:0400E800C2EF0BF068
:1008000000000001000200030004000500060007CC
:100810000008000900002650800B2F6E2650262469
:10082000356E25AE16EF04F018EF04F019EF04F062
:1008300035803550D8B41FEF04F021EF04F034EFC9
:1008400004F03528D8A427EF04F029EF04F031EFA5
:1008500004F0000E236E000E246E000E256E000EB6
:10086000266E258E3CEF04F0000E236E000E246EE3
:10087000000E256E000E266E2A50800B2F1A2A506D
:100880002A24346E29AE47EF04F049EF04F04AEF12
:1008900004F034803450D8B450EF04F052EF04F038
:1008A00065EF04F03428D8A458EF04F05AEF04F0B0
:1008B00062EF04F0000E276E000E286E000E296E07
:1008C000000E2A6E298E6DEF04F0000E276E000ECA
:1008D000286E000E296E000E2A6E3450D8B473EFC5
:1008E00004F075EF04F07DEF04F03550D8A47BEFF1
:1008F00004F07DEF04F087EF04F0000E236E000E8D
:10090000246E000E256E000E266E1FEF06F0295095
:100910002302F3CF3AF0F4CF3BF03A50306E316A15
:10092000326A336A3B50366E376A386A396A285001
:100930002402F3CF3AF0F4CF3BF03A503026000EC9
:100940003122322233223B503626000E3722382203
:10095000392227502502F3CF3AF0F4CF3BF03A503A
:100960003026000E3122322233223B503626000E32
:1009700037223822392232C033F031C032F030C051
:1009800031F0306A27502402F3CF3AF0F4CF3BF035
:100990003A5030263B503122000E3222000E3322D4
:1009A00028502302F3CF3AF0F4CF3BF03A503026F0
:1009B0003B503122000E3222000E332232C033F07F
:1009C00031C032F030C031F0306A27502302F3CF0B
:1009D0003AF0F4CF3BF03A5030263B503122000E33
:1009E0003222000E332229502402F3CF3AF0F4CF02
:1009F0003BF03A5036263B503722000E3822000E8C
:100A0000392228502502F3CF3AF0F4CF3BF03A5088
:100A100036263B503722000E3822000E392229504C
:100A20002502F3CF3AF0F4CF3BF03A502B6E3B5017
:100A30002C6E2D6A2E6A2DC02EF02CC02DF02BC0EE
:100A40002CF02B6A2B5036262C5037222D50382272
:100A50002E50392230C02BF031C02CF032C02DF096
:100A600033C02EF0190E3AEF05F0D8902E322D3209
:100A70002C322B32E82E35EF05F02B5036262C5039
:100A800037222D5038222E50392232C033F031C057
:100A900032F030C031F0306A345035C02BF02C6A5F
:100AA0002B26000E2C22820E2B243A6EFF0E2C20B9
:100AB0003B6E70EF05F0D89036363736383639361B
:100AC00033AE65EF05F067EF05F068EF05F03680AF
:100AD000D89030363136323633363A06D8A03B0617
:100AE00038AE75EF05F077EF05F05BEF05F0000E1F
:100AF000346E33AE7EEF05F080EF05F0A4EF05F025
:100B0000FF0E30142B6EFF0E31142C6EFF0E3214BC
:100B10002D6E7F0E33142E6E2B502C102D102E1098
:100B2000D8B495EF05F097EF05F09BEF05F0010EB7
:100B3000346EA4EF05F036A0A0EF05F0A2EF05F0AB
:100B4000A4EF05F097EF05F03450D8B4AAEF05F004
:100B5000ACEF05F0D0EF05F0010E3626000E37227F
:100B60003822392239A0B7EF05F0B9EF05F0D0EF00
:100B700005F036C02BF037C02CF038C02DF039C04E
:100B80002EF02E342E322D322C322B322BC036F05A
:100B90002CC037F02DC038F02EC039F03A4A3B2A2D
:100BA0003BBEDBEF05F03B5008E13A28D8A0DBEF75
:100BB00005F0DDEF05F0E7EF05F0000E366E000EF4
:100BC000376E800E386E7F0E396E15EF06F03BBE25
:100BD000F4EF05F03B5006E13A04D8B0F2EF05F02F
:100BE000F4EF05F000EF06F0000E366E000E376EE3
:100BF000000E386E000E396E000E2F6E15EF06F0E7
:100C00003AC035F0FF0E3616FF0E37167F0E381637
:100C1000000E391635A00FEF06F011EF06F012EFB7
:100C200006F0388ED8903530396E2F50391236C0D4
:100C300023F037C024F038C025F039C026F0120068
:100C40003F50800B0001646F3F503F246B6F3EAEFE
:100C50002CEF06F02EEF06F02FEF06F06B816B51B4
:100C6000D8B435EF06F037EF06F04CEF06F06B29FD
:100C7000D8A43DEF06F03FEF06F047EF06F0000E78
:100C80003C6E000E3D6E000E3E6E000E3F6E3E8EC0
:100C9000000E3F6E54EF06F0000E3C6E000E3D6EEF
:100CA000000E3E6E000E3F6E4350800B641B43509F
:100CB00043246C6F42AE5FEF06F061EF06F062EF27
:100CC00006F06C816C51D8B468EF06F06AEF06F05C
:100CD0007FEF06F06C29D8A470EF06F072EF06F0F3
:100CE0007AEF06F0000E406E000E416E000E426E6E
:100CF000000E436E428E000E436E87EF06F0000E2C
:100D0000406E000E416E000E426E000E436E40506B
:100D1000411042104310D8A490EF06F092EF06F075
:100D2000AAEF06F0000E3C6E000E3D6E000E3E6E09
:100D3000000E3F6E800E3E127F0E3F1264513F1236
:100D40003CC03CF03DC03DF03EC03EF03FC03FF0F7
:100D5000EDEF07F06B51D8A4B0EF06F0B2EF06F05C
:100D6000BCEF06F0000E3C6E000E3D6E000E3E6EB7
:100D7000000E3F6EEDEF07F06C516BC044F0456A1A
:100D8000445E000E455A7F0E4424656F000E4520D8
:100D9000666F3CC060F03DC061F03EC062F03FC095
:100DA00063F0000E3C6E000E3D6E000E3E6E000EB7
:100DB0003F6E000E676F000E686F000E696F000EC9
:100DC0006A6F000E6C6F1DEF07F06C51D8B4EBEF3B
:100DD00006F0EDEF06F004EF07F0D89060376137CA
:100DE00062376337D8903C363D363E363F366AAF81
:100DF000FCEF06F0FEEF06F0FFEF06F03C80D89027
:100E00006737683769376A374050605D41506159CC
:100E10004250625943506359D8A011EF07F013EFC5
:100E200007F01CEF07F06A8D4050605F4150615B36
:100E30004250625B4350635B6C2B190E6C6523EF71
:100E400007F025EF07F0E5EF06F060516111621140
:100E50006311D8B42EEF07F030EF07F048EF07F03A
:100E6000678148EF07F0D8903C363D363E363F3636
:100E70006AAF3DEF07F03FEF07F040EF07F03C802F
:100E8000D8906737683769376A376507D8A066072B
:100E90003EAE4DEF07F04FEF07F033EF07F0000ED7
:100EA0006C6F6AAF56EF07F058EF07F07CEF07F072
:100EB000FF0E6715446EFF0E6815456EFF0E69152F
:100EC000466E7F0E6A15476E445045104610471017
:100ED000D8B46DEF07F06FEF07F073EF07F0010E76
:100EE0006C6F7CEF07F03CA078EF07F07AEF07F02B
:100EF0007CEF07F06FEF07F06C51D8B482EF07F08A
:100F000084EF07F0A8EF07F0010E3C26000E3D220B
:100F10003E223F223FA08FEF07F091EF07F0A8EFAE
:100F200007F03CC044F03DC045F03EC046F03FC035
:100F300047F04734473246324532443244C03CF0F1
:100F400045C03DF046C03EF047C03FF0654B662BC4
:100F500066BFB3EF07F0665108E16529D8A0B3EF8B
:100F600007F0B5EF07F0C0EF07F0000E666F656998
:100F7000000E3C6E000E3D6E000E3E6E000E3F6E8B
:100F800066BFCDEF07F0665106E16505D8B0CBEF3F
:100F900007F0CDEF07F0DBEF07F0000E666F000EF5
:100FA000656F000E3C6E000E3D6E000E3E6E000E34
:100FB0003F6E000E646F65C06BF06BA1E2EF07F04F
:100FC000E4EF07F0E7EF07F03E8EE8EF07F03E9E14
:100FD000D8906B313F6E9EEF06F012009368000EC2
:100FE000956E000E836E000E966E000E846E010EDE
:100FF000926E000E806E000E946E000E826EC1988E
:10100000C19AC294C050C70B1009C06EC050F80BF3
:101010000409C06EC08EC150F00B0E09C16EC280B3
:10102000F190F19EF28EF286F290D08EF28EF28CDA
:10103000F288F292FD0E806EFB0E806EF70E806ECF
:10104000C282C2B226EF08F028EF08F021EF08F0C4
:10105000C4500001806F7F6BC3507F257F6F000EEF
:101060008021806F7FC015F080C016F0000E16BE84
:10107000FF0E176E186E010E18EC09F0000E276EA9
:10108000000E286EA00E296E400E2A6E7FC015F04D
:1010900080C016F0000E16BEFF0E176E186E010E01
:1010A00018EC09F015C023F016C024F017C025F085
:1010B00018C026F00BEC04F023C03CF024C03DF037
:1010C00025C03EF026C03FF0000E406EC00E416EBF
:1010D0007F0E426E440E436E20EC06F03CC079F069
:1010E0003DC07AF03EC07BF03FC07CF00A0E406EFF
:1010F000D70E416E230E426E3C0E436E79C03CF01B
:101100007AC03DF07BC03EF07CC03FF020EC06F0A2
:101110003CC06DF03DC06EF03EC06FF03FC070F05F
:101120003EEC0BF06DC077F06EC078F0000178BF38
:10113000A5EF08F0785107E13D0E775DD8B0A3EF39
:1011400008F0A5EF08F0A8EF08F08492A9EF08F0E6
:10115000848281A0AEEF08F0B0EF08F01AEF08F03B
:10116000F292000E826F000E816F000E826ED89098
:101170008135F66E8235F76E010EF626080EF722DF
:101180000800F5CF83FF060E0001766F130E756F12
:10119000AD0EE82EFED7752FFCD7762FFAD700D0EC
:1011A0000001814B822B82BFDFEF08F0825109E101
:1011B0000A0E815DD8A0DFEF08F0E1EF08F0B5EF8F
:1011C00008F0000E7E6F000E7D6F8480060E000119
:1011D000766F130E756FAD0EE82EFED7752FFCD708
:1011E000762FFAD700D08490060E0001766F130E8A
:1011F000756FAD0EE82EFED7752FFCD7762FFAD778
:1012000000D000017D4B7E2B7EBF10EF09F07E5198
:1012100009E1030E7D5DD8A010EF09F012EF09F08F
:10122000E5EF08F0000E836E1AEF08F074EF00F09F
:101230001D6E1D50D8B41FEF09F021EF09F043EFE8
:1012400009F018BE28EF09F026EF09F043EF09F086
:1012500015C019F016C01AF017C01BF018C01CF00A
:10126000191E1A1E1B1E1C1E192A000E1A221B22D2
:101270001C2219C01FF01AC020F01BC021F01CC096
:1012800022F04BEF09F015C01FF016C020F017C078
:1012900021F018C022F01550161017101810D8A4FD
:1012A00054EF09F056EF09F060EF09F0000E156EEB
:1012B000000E166E000E176E000E186EF1EF09F09C
:1012C000960E1E6E6AEF09F01E2AD8902232213245
:1012D00020321F32000E1F14196E000E20141A6ED9
:1012E000000E21141B6EFE0E22141C6E19501A10D3
:1012F0001B101C10D8A47FEF09F081EF09F064EFF8
:1013000009F08FEF09F01E2A010E1F26000E202281
:1013100021222222D8902232213220321F32000E86
:101320001F14196E000E20141A6E000E21141B6E6D
:10133000FF0E22141C6E19501A101B101C10D8A47A
:10134000A4EF09F0A6EF09F083EF09F0AEEF09F082
:101350001E06D8901F3620362136223621BEB3EF26
:1013600009F0B5EF09F0BDEF09F0020E1E60BBEF0A
:1013700009F0BDEF09F0A8EF09F01EB0C2EF09F0C7
:10138000C4EF09F0C5EF09F0219ED8901E321EC0AF
:1013900019F01A6A1B6A1C6A19C01CF01B6A1A6AC7
:1013A000196A19501F121A5020121B5021121C507A
:1013B00022121D50D8B4DFEF09F0E1EF09F0E9EF98
:1013C00009F018BEE8EF09F0E6EF09F0E9EF09F0DF
:1013D000228E1FC015F020C016F021C017F022C0C9
:1013E00018F0120080B2F7EF09F0F9EF09F044EFBE
:1013F0000AF081B8FEEF09F000EF0AF002EF0AF000
:10140000310E076E81BA07EF0AF009EF0AF00BEF11
:101410000AF0340E076E81BC10EF0AF012EF0AF0EA
:1014200014EF0AF0370E076E81BE19EF0AF01BEFBA
:101430000AF044EF0AF007C005F0066A06BE25EF81
:101440000AF023EF0AF027EF0AF044EF0AF0D890F1
:101450000534F66E0634F76E010EF626080EF722F6
:101460000800F5CF83FF060E046E130E036EAE0E5A
:10147000E82EFED7032EFCD7042EFAD7848005066B
:10148000D8A006061EEF0AF080B449EF0AF04BEF31
:101490000AF06FEF0AF081B850EF0AF052EF0AF04D
:1014A00054EF0AF0320E076E81BA59EF0AF05BEF83
:1014B0000AF05DEF0AF0350E076E81BC62EF0AF0AC
:1014C00064EF0AF066EF0AF0380E076E81BE6BEF2C
:1014D0000AF06DEF0AF06FEF0AF0300E076E80B67B
:1014E00074EF0AF076EF0AF091EF0AF081B87BEF23
:1014F0000AF07DEF0AF07FEF0AF0330E076E81BA33
:1015000084EF0AF086EF0AF088EF0AF0360E076ED5
:1015100081BC8DEF0AF08FEF0AF091EF0AF0390EDF
:10152000076E0750D00F076E07C001F0026A120065
:1015300080B29DEF0AF09FEF0AF0EAEF0AF081B85F
:10154000A4EF0AF0A6EF0AF0A8EF0AF0310E076E3A
:1015500081BAADEF0AF0AFEF0AF0B1EF0AF0330E47
:10156000076E81BCB6EF0AF0B8EF0AF0BAEF0AF0E6
:10157000370E076E81BEBFEF0AF0C1EF0AF0EAEF47
:101580000AF007C005F0066A06BECBEF0AF0C9EF05
:101590000AF0CDEF0AF0EAEF0AF0D8900534F66EC3
:1015A0000634F76E010EF626080EF7220800F5CF76
:1015B00083FF060E046E130E036EAE0EE82EFED7EA
:1015C000032EFCD7042EFAD784800506D8A0060681
:1015D000C4EF0AF080B4EFEF0AF0F1EF0AF015EF74
:1015E0000BF081B8F6EF0AF0F8EF0AF0FAEF0AF024
:1015F000320E076E81BAFFEF0AF001EF0BF003EF36
:101600000BF0350E076E81BC08EF0BF00AEF0BF004
:101610000CEF0BF0380E076E81BE11EF0BF013EFDD
:101620000BF015EF0BF0300E076E80B61AEF0BF0D3
:101630001CEF0BF037EF0BF081B821EF0BF023EF2D
:101640000BF025EF0BF0330E076E81BA2AEF0BF08B
:101650002CEF0BF02EEF0BF0360E076E81BC33EF44
:101660000BF035EF0BF037EF0BF0390E076E07502C
:10167000D00F076E07C001F0026A120000016F353B
:101680007035496E4950D8A448EF0BF04AEF0BF083
:1016900054EF0BF0000E6D6F000E6E6F000E6F6F4B
:1016A000000E706FC1EF0BF06DC071F06EC072F084
:1016B0006FC073F070C074F0200E64EF0BF0D89020
:1016C0007433733372337133E82E5FEF0BF0715163
:1016D000486E6F8FFF0E6D17FF0E6E17FF0E6F17A0
:1016E000000E7017960E495E49BE7BEF0BF079EF46
:1016F0000BF091EF0BF04950800A970FD8B083EFB1
:101700000BF085EF0BF087EF0BF04AEF0BF0D89062
:1017100070336F336E336D33493E87EF0BF0A9EFB3
:101720000BF01F0E496497EF0BF099EF0BF0A1EF50
:101730000BF04AEF0BF0D8906D376E376F3770377C
:1017400049064950D8A4A7EF0BF0A9EF0BF09BEF87
:101750000BF04850D8B4AFEF0BF0B1EF0BF0B9EF8E
:101760000BF0701F6F1F6E1F6D6D000E6E236F23C9
:1017700070236DC06DF06EC06EF06FC06FF070C002
:1017800070F012004A904A92000EF86E080EF76E42
:061790000001EEEF07F07E
:020000040020DA
:08000000FFFFFFFFFFFFFFFF00
:020000040030CA
:0E00000001001F1FFF8385FF0FC00FE00F40A0
:00000001FF
